{
  "contractName": "EnergyAsset",
  "abi": [
    {
      "inputs": [],
      "stateMutability": "nonpayable",
      "type": "constructor"
    },
    {
      "anonymous": false,
      "inputs": [
        {
          "indexed": true,
          "internalType": "address",
          "name": "newProsumer",
          "type": "address"
        }
      ],
      "name": "AddProsumer",
      "type": "event"
    },
    {
      "anonymous": false,
      "inputs": [
        {
          "indexed": true,
          "internalType": "address",
          "name": "account",
          "type": "address"
        },
        {
          "indexed": true,
          "internalType": "address",
          "name": "operator",
          "type": "address"
        },
        {
          "indexed": false,
          "internalType": "bool",
          "name": "approved",
          "type": "bool"
        }
      ],
      "name": "ApprovalForAll",
      "type": "event"
    },
    {
      "anonymous": false,
      "inputs": [
        {
          "indexed": true,
          "internalType": "address",
          "name": "previousOwner",
          "type": "address"
        },
        {
          "indexed": true,
          "internalType": "address",
          "name": "newOwner",
          "type": "address"
        }
      ],
      "name": "OwnershipTransferred",
      "type": "event"
    },
    {
      "anonymous": false,
      "inputs": [
        {
          "indexed": true,
          "internalType": "address",
          "name": "operator",
          "type": "address"
        },
        {
          "indexed": true,
          "internalType": "address",
          "name": "from",
          "type": "address"
        },
        {
          "indexed": true,
          "internalType": "address",
          "name": "to",
          "type": "address"
        },
        {
          "indexed": false,
          "internalType": "uint256[]",
          "name": "ids",
          "type": "uint256[]"
        },
        {
          "indexed": false,
          "internalType": "uint256[]",
          "name": "values",
          "type": "uint256[]"
        }
      ],
      "name": "TransferBatch",
      "type": "event"
    },
    {
      "anonymous": false,
      "inputs": [
        {
          "indexed": true,
          "internalType": "address",
          "name": "operator",
          "type": "address"
        },
        {
          "indexed": true,
          "internalType": "address",
          "name": "from",
          "type": "address"
        },
        {
          "indexed": true,
          "internalType": "address",
          "name": "to",
          "type": "address"
        },
        {
          "indexed": false,
          "internalType": "uint256",
          "name": "id",
          "type": "uint256"
        },
        {
          "indexed": false,
          "internalType": "uint256",
          "name": "value",
          "type": "uint256"
        }
      ],
      "name": "TransferSingle",
      "type": "event"
    },
    {
      "anonymous": false,
      "inputs": [
        {
          "indexed": false,
          "internalType": "string",
          "name": "value",
          "type": "string"
        },
        {
          "indexed": true,
          "internalType": "uint256",
          "name": "id",
          "type": "uint256"
        }
      ],
      "name": "URI",
      "type": "event"
    },
    {
      "inputs": [],
      "name": "E_CERTIFICATION",
      "outputs": [
        {
          "internalType": "uint256",
          "name": "",
          "type": "uint256"
        }
      ],
      "stateMutability": "view",
      "type": "function",
      "constant": true
    },
    {
      "inputs": [],
      "name": "E_TOKEN",
      "outputs": [
        {
          "internalType": "uint256",
          "name": "",
          "type": "uint256"
        }
      ],
      "stateMutability": "view",
      "type": "function",
      "constant": true
    },
    {
      "inputs": [
        {
          "internalType": "address",
          "name": "account",
          "type": "address"
        },
        {
          "internalType": "uint256",
          "name": "id",
          "type": "uint256"
        }
      ],
      "name": "balanceOf",
      "outputs": [
        {
          "internalType": "uint256",
          "name": "",
          "type": "uint256"
        }
      ],
      "stateMutability": "view",
      "type": "function",
      "constant": true
    },
    {
      "inputs": [
        {
          "internalType": "address[]",
          "name": "accounts",
          "type": "address[]"
        },
        {
          "internalType": "uint256[]",
          "name": "ids",
          "type": "uint256[]"
        }
      ],
      "name": "balanceOfBatch",
      "outputs": [
        {
          "internalType": "uint256[]",
          "name": "",
          "type": "uint256[]"
        }
      ],
      "stateMutability": "view",
      "type": "function",
      "constant": true
    },
    {
      "inputs": [
        {
          "internalType": "address",
          "name": "account",
          "type": "address"
        },
        {
          "internalType": "uint256",
          "name": "id",
          "type": "uint256"
        },
        {
          "internalType": "uint256",
          "name": "value",
          "type": "uint256"
        }
      ],
      "name": "burn",
      "outputs": [],
      "stateMutability": "nonpayable",
      "type": "function"
    },
    {
      "inputs": [
        {
          "internalType": "address",
          "name": "account",
          "type": "address"
        },
        {
          "internalType": "address",
          "name": "operator",
          "type": "address"
        }
      ],
      "name": "isApprovedForAll",
      "outputs": [
        {
          "internalType": "bool",
          "name": "",
          "type": "bool"
        }
      ],
      "stateMutability": "view",
      "type": "function",
      "constant": true
    },
    {
      "inputs": [],
      "name": "owner",
      "outputs": [
        {
          "internalType": "address",
          "name": "",
          "type": "address"
        }
      ],
      "stateMutability": "view",
      "type": "function",
      "constant": true
    },
    {
      "inputs": [],
      "name": "renounceOwnership",
      "outputs": [],
      "stateMutability": "nonpayable",
      "type": "function"
    },
    {
      "inputs": [
        {
          "internalType": "address",
          "name": "from",
          "type": "address"
        },
        {
          "internalType": "address",
          "name": "to",
          "type": "address"
        },
        {
          "internalType": "uint256[]",
          "name": "ids",
          "type": "uint256[]"
        },
        {
          "internalType": "uint256[]",
          "name": "amounts",
          "type": "uint256[]"
        },
        {
          "internalType": "bytes",
          "name": "data",
          "type": "bytes"
        }
      ],
      "name": "safeBatchTransferFrom",
      "outputs": [],
      "stateMutability": "nonpayable",
      "type": "function"
    },
    {
      "inputs": [
        {
          "internalType": "address",
          "name": "from",
          "type": "address"
        },
        {
          "internalType": "address",
          "name": "to",
          "type": "address"
        },
        {
          "internalType": "uint256",
          "name": "id",
          "type": "uint256"
        },
        {
          "internalType": "uint256",
          "name": "amount",
          "type": "uint256"
        },
        {
          "internalType": "bytes",
          "name": "data",
          "type": "bytes"
        }
      ],
      "name": "safeTransferFrom",
      "outputs": [],
      "stateMutability": "nonpayable",
      "type": "function"
    },
    {
      "inputs": [
        {
          "internalType": "address",
          "name": "operator",
          "type": "address"
        },
        {
          "internalType": "bool",
          "name": "approved",
          "type": "bool"
        }
      ],
      "name": "setApprovalForAll",
      "outputs": [],
      "stateMutability": "nonpayable",
      "type": "function"
    },
    {
      "inputs": [
        {
          "internalType": "bytes4",
          "name": "interfaceId",
          "type": "bytes4"
        }
      ],
      "name": "supportsInterface",
      "outputs": [
        {
          "internalType": "bool",
          "name": "",
          "type": "bool"
        }
      ],
      "stateMutability": "view",
      "type": "function",
      "constant": true
    },
    {
      "inputs": [
        {
          "internalType": "address",
          "name": "newOwner",
          "type": "address"
        }
      ],
      "name": "transferOwnership",
      "outputs": [],
      "stateMutability": "nonpayable",
      "type": "function"
    },
    {
      "inputs": [
        {
          "internalType": "uint256",
          "name": "",
          "type": "uint256"
        }
      ],
      "name": "uri",
      "outputs": [
        {
          "internalType": "string",
          "name": "",
          "type": "string"
        }
      ],
      "stateMutability": "view",
      "type": "function",
      "constant": true
    },
    {
      "inputs": [
        {
          "internalType": "address",
          "name": "new_prosumer",
          "type": "address"
        }
      ],
      "name": "addProsumer",
      "outputs": [],
      "stateMutability": "nonpayable",
      "type": "function"
    },
    {
      "inputs": [],
      "name": "setCreationTime",
      "outputs": [],
      "stateMutability": "nonpayable",
      "type": "function"
    },
    {
      "inputs": [],
      "name": "getCreationTime",
      "outputs": [
        {
          "internalType": "uint256",
          "name": "",
          "type": "uint256"
        }
      ],
      "stateMutability": "view",
      "type": "function",
      "constant": true
    },
    {
      "inputs": [],
      "name": "getEtokenBalance",
      "outputs": [
        {
          "internalType": "uint256",
          "name": "",
          "type": "uint256"
        }
      ],
      "stateMutability": "view",
      "type": "function",
      "constant": true
    },
    {
      "inputs": [
        {
          "internalType": "string",
          "name": "new_uri",
          "type": "string"
        }
      ],
      "name": "setURI",
      "outputs": [],
      "stateMutability": "nonpayable",
      "type": "function"
    },
    {
      "inputs": [
        {
          "internalType": "address",
          "name": "account",
          "type": "address"
        },
        {
          "internalType": "uint256",
          "name": "id",
          "type": "uint256"
        },
        {
          "internalType": "uint256",
          "name": "amount",
          "type": "uint256"
        },
        {
          "internalType": "bytes",
          "name": "data",
          "type": "bytes"
        }
      ],
      "name": "mint",
      "outputs": [],
      "stateMutability": "nonpayable",
      "type": "function"
    },
    {
      "inputs": [
        {
          "internalType": "address",
          "name": "to",
          "type": "address"
        },
        {
          "internalType": "uint256[]",
          "name": "ids",
          "type": "uint256[]"
        },
        {
          "internalType": "uint256[]",
          "name": "amounts",
          "type": "uint256[]"
        },
        {
          "internalType": "bytes",
          "name": "data",
          "type": "bytes"
        }
      ],
      "name": "mintBatch",
      "outputs": [],
      "stateMutability": "nonpayable",
      "type": "function"
    },
    {
      "inputs": [
        {
          "internalType": "address",
          "name": "account",
          "type": "address"
        },
        {
          "internalType": "uint256[]",
          "name": "ids",
          "type": "uint256[]"
        },
        {
          "internalType": "uint256[]",
          "name": "amounts",
          "type": "uint256[]"
        }
      ],
      "name": "burnBatch",
      "outputs": [],
      "stateMutability": "nonpayable",
      "type": "function"
    }
  ],
  "bytecode": "0x6080604052426005553480156200001557600080fd5b5060405180608001604052806044815260200162004f0b604491396200005062000044620000f960201b60201c565b6200010160201b60201c565b6200006181620001c560201b60201c565b506200009d62000076620000f960201b60201c565b6000670de0b6b3a764000060405180602001604052806000815250620001e160201b60201c565b670de0b6b3a764000060046000828254620000b99190620009bc565b92505081905550620000f3620000d4620000f960201b60201c565b60018060405180602001604052806000815250620001e160201b60201c565b62000dd2565b600033905090565b60008060009054906101000a900473ffffffffffffffffffffffffffffffffffffffff169050816000806101000a81548173ffffffffffffffffffffffffffffffffffffffff021916908373ffffffffffffffffffffffffffffffffffffffff1602179055508173ffffffffffffffffffffffffffffffffffffffff168173ffffffffffffffffffffffffffffffffffffffff167f8be0079c531659141344cd1fd0a4f28419497f9722a3daafe3b4186f6b6457e060405160405180910390a35050565b8060039080519060200190620001dd9291906200064d565b5050565b600073ffffffffffffffffffffffffffffffffffffffff168473ffffffffffffffffffffffffffffffffffffffff16141562000254576040517f08c379a00000000000000000000000000000000000000000000000000000000081526004016200024b906200092b565b60405180910390fd5b600062000266620000f960201b60201c565b90506200029f816000876200028188620003a760201b60201c565b6200029288620003a760201b60201c565b876200042860201b60201c565b826001600086815260200190815260200160002060008773ffffffffffffffffffffffffffffffffffffffff1673ffffffffffffffffffffffffffffffffffffffff1681526020019081526020016000206000828254620003019190620009bc565b925050819055508473ffffffffffffffffffffffffffffffffffffffff16600073ffffffffffffffffffffffffffffffffffffffff168273ffffffffffffffffffffffffffffffffffffffff167fc3d58168c5ae7397731d063d5bbf3d657854427343f4c083240f7aacaa2d0f628787604051620003819291906200094d565b60405180910390a4620003a0816000878787876200043060201b60201c565b5050505050565b60606000600167ffffffffffffffff811115620003c957620003c862000bb2565b5b604051908082528060200260200182016040528015620003f85781602001602082028036833780820191505090505b509050828160008151811062000413576200041262000b83565b5b60200260200101818152505080915050919050565b505050505050565b6200045c8473ffffffffffffffffffffffffffffffffffffffff166200063a60201b620012421760201c565b1562000632578373ffffffffffffffffffffffffffffffffffffffff1663f23a6e6187878686866040518663ffffffff1660e01b8152600401620004a59594939291906200085f565b602060405180830381600087803b158015620004c057600080fd5b505af1925050508015620004f457506040513d601f19601f82011682018060405250810190620004f1919062000714565b60015b620005a6576200050362000be1565b806308c379a014156200056757506200051b62000d16565b8062000528575062000569565b806040517f08c379a00000000000000000000000000000000000000000000000000000000081526004016200055e9190620008c3565b60405180910390fd5b505b6040517f08c379a00000000000000000000000000000000000000000000000000000000081526004016200059d90620008e7565b60405180910390fd5b63f23a6e6160e01b7bffffffffffffffffffffffffffffffffffffffffffffffffffffffff1916817bffffffffffffffffffffffffffffffffffffffffffffffffffffffff19161462000630576040517f08c379a0000000000000000000000000000000000000000000000000000000008152600401620006279062000909565b60405180910390fd5b505b505050505050565b600080823b905060008111915050919050565b8280546200065b9062000ab9565b90600052602060002090601f0160209004810192826200067f5760008555620006cb565b82601f106200069a57805160ff1916838001178555620006cb565b82800160010185558215620006cb579182015b82811115620006ca578251825591602001919060010190620006ad565b5b509050620006da9190620006de565b5090565b5b80821115620006f9576000816000905550600101620006df565b5090565b6000815190506200070e8162000db8565b92915050565b6000602082840312156200072d576200072c62000c06565b5b60006200073d84828501620006fd565b91505092915050565b620007518162000a19565b82525050565b6000620007648262000984565b6200077081856200099a565b93506200078281856020860162000a83565b6200078d8162000c0b565b840191505092915050565b6000620007a5826200098f565b620007b18185620009ab565b9350620007c381856020860162000a83565b620007ce8162000c0b565b840191505092915050565b6000620007e8603483620009ab565b9150620007f58262000c29565b604082019050919050565b60006200080f602883620009ab565b91506200081c8262000c78565b604082019050919050565b600062000836602183620009ab565b9150620008438262000cc7565b604082019050919050565b620008598162000a79565b82525050565b600060a08201905062000876600083018862000746565b62000885602083018762000746565b6200089460408301866200084e565b620008a360608301856200084e565b8181036080830152620008b7818462000757565b90509695505050505050565b60006020820190508181036000830152620008df818462000798565b905092915050565b600060208201905081810360008301526200090281620007d9565b9050919050565b60006020820190508181036000830152620009248162000800565b9050919050565b60006020820190508181036000830152620009468162000827565b9050919050565b60006040820190506200096460008301856200084e565b6200097360208301846200084e565b9392505050565b6000604051905090565b600081519050919050565b600081519050919050565b600082825260208201905092915050565b600082825260208201905092915050565b6000620009c98262000a79565b9150620009d68362000a79565b9250827fffffffffffffffffffffffffffffffffffffffffffffffffffffffffffffffff0382111562000a0e5762000a0d62000b25565b5b828201905092915050565b600062000a268262000a59565b9050919050565b60007fffffffff0000000000000000000000000000000000000000000000000000000082169050919050565b600073ffffffffffffffffffffffffffffffffffffffff82169050919050565b6000819050919050565b60005b8381101562000aa357808201518184015260208101905062000a86565b8381111562000ab3576000848401525b50505050565b6000600282049050600182168062000ad257607f821691505b6020821081141562000ae95762000ae862000b54565b5b50919050565b62000afa8262000c0b565b810181811067ffffffffffffffff8211171562000b1c5762000b1b62000bb2565b5b80604052505050565b7f4e487b7100000000000000000000000000000000000000000000000000000000600052601160045260246000fd5b7f4e487b7100000000000000000000000000000000000000000000000000000000600052602260045260246000fd5b7f4e487b7100000000000000000000000000000000000000000000000000000000600052603260045260246000fd5b7f4e487b7100000000000000000000000000000000000000000000000000000000600052604160045260246000fd5b600060033d111562000c035760046000803e62000c0060005162000c1c565b90505b90565b600080fd5b6000601f19601f8301169050919050565b60008160e01c9050919050565b7f455243313135353a207472616e7366657220746f206e6f6e204552433131353560008201527f526563656976657220696d706c656d656e746572000000000000000000000000602082015250565b7f455243313135353a204552433131353552656365697665722072656a6563746560008201527f6420746f6b656e73000000000000000000000000000000000000000000000000602082015250565b7f455243313135353a206d696e7420746f20746865207a65726f2061646472657360008201527f7300000000000000000000000000000000000000000000000000000000000000602082015250565b600060443d101562000d285762000db5565b62000d326200097a565b60043d036004823e80513d602482011167ffffffffffffffff8211171562000d5c57505062000db5565b808201805167ffffffffffffffff81111562000d7c575050505062000db5565b80602083010160043d03850181111562000d9b57505050505062000db5565b62000dac8260200185018662000aef565b82955050505050505b90565b62000dc38162000a2d565b811462000dcf57600080fd5b50565b6141298062000de26000396000f3fe608060405234801561001057600080fd5b50600436106101415760003560e01c8063731133e9116100b8578063de47fcae1161007c578063de47fcae1461034c578063e6519a3514610356578063e985e9c514610374578063f242432a146103a4578063f2fde38b146103c0578063f5298aca146103dc57610141565b8063731133e9146102ba5780638da5cb5b146102d65780638f24592b146102f4578063a22cb46514610312578063b866c7021461032e57610141565b80631f7fdffa1161010a5780631f7fdffa146102105780632eb2c2d61461022c5780634e1273f41461024857806350736190146102785780636b20c45414610294578063715018a6146102b057610141565b8062fdd58e1461014657806301ffc9a71461017657806302fe5305146101a65780630e89341c146101c257806319452317146101f2575b600080fd5b610160600480360381019061015b9190612d37565b6103f8565b60405161016d919061369f565b60405180910390f35b610190600480360381019061018b9190612ec5565b6104c2565b60405161019d9190613442565b60405180910390f35b6101c060048036038101906101bb9190612f1f565b6105a4565b005b6101dc60048036038101906101d79190612f68565b61062c565b6040516101e9919061345d565b60405180910390f35b6101fa6106c0565b604051610207919061369f565b60405180910390f35b61022a60048036038101906102259190612c3c565b6106c5565b005b61024660048036038101906102419190612a4b565b6107ca565b005b610262600480360381019061025d9190612e4d565b61086b565b60405161026f91906133e9565b60405180910390f35b610292600480360381019061028d91906129de565b610984565b005b6102ae60048036038101906102a99190612bb1565b610b0e565b005b6102b8610b95565b005b6102d460048036038101906102cf9190612dca565b610c1d565b005b6102de610cce565b6040516102eb919061330c565b60405180910390f35b6102fc610cf7565b604051610309919061369f565b60405180910390f35b61032c60048036038101906103279190612cf7565b610d01565b005b610336610e82565b604051610343919061369f565b60405180910390f35b610354610e87565b005b61035e610f6e565b60405161036b919061369f565b60405180910390f35b61038e60048036038101906103899190612a0b565b610f78565b60405161039b9190613442565b60405180910390f35b6103be60048036038101906103b99190612b1a565b61100c565b005b6103da60048036038101906103d591906129de565b6110ad565b005b6103f660048036038101906103f19190612d77565b6111a5565b005b60008073ffffffffffffffffffffffffffffffffffffffff168373ffffffffffffffffffffffffffffffffffffffff161415610469576040517f08c379a0000000000000000000000000000000000000000000000000000000008152600401610460906134bf565b60405180910390fd5b6001600083815260200190815260200160002060008473ffffffffffffffffffffffffffffffffffffffff1673ffffffffffffffffffffffffffffffffffffffff16815260200190815260200160002054905092915050565b60007fd9b67a26000000000000000000000000000000000000000000000000000000007bffffffffffffffffffffffffffffffffffffffffffffffffffffffff1916827bffffffffffffffffffffffffffffffffffffffffffffffffffffffff1916148061058d57507f0e89341c000000000000000000000000000000000000000000000000000000007bffffffffffffffffffffffffffffffffffffffffffffffffffffffff1916827bffffffffffffffffffffffffffffffffffffffffffffffffffffffff1916145b8061059d575061059c82611255565b5b9050919050565b6105ac6112bf565b73ffffffffffffffffffffffffffffffffffffffff166105ca610cce565b73ffffffffffffffffffffffffffffffffffffffff1614610620576040517f08c379a0000000000000000000000000000000000000000000000000000000008152600401610617906135bf565b60405180910390fd5b610629816112c7565b50565b60606003805461063b90613973565b80601f016020809104026020016040519081016040528092919081815260200182805461066790613973565b80156106b45780601f10610689576101008083540402835291602001916106b4565b820191906000526020600020905b81548152906001019060200180831161069757829003601f168201915b50505050509050919050565b600081565b6106cd6112bf565b73ffffffffffffffffffffffffffffffffffffffff166106eb610cce565b73ffffffffffffffffffffffffffffffffffffffff1614610741576040517f08c379a0000000000000000000000000000000000000000000000000000000008152600401610738906135bf565b60405180910390fd5b61074d848484846112e1565b60005b83518110156107c357600084828151811061076e5761076d613a7d565b5b602002602001015114156107b05782818151811061078f5761078e613a7d565b5b6020026020010151600460008282546107a89190613833565b925050819055505b80806107bb906139d6565b915050610750565b5050505050565b6107d26112bf565b73ffffffffffffffffffffffffffffffffffffffff168573ffffffffffffffffffffffffffffffffffffffff1614806108185750610817856108126112bf565b610f78565b5b610857576040517f08c379a000000000000000000000000000000000000000000000000000000000815260040161084e9061355f565b60405180910390fd5b6108648585858585611500565b5050505050565b606081518351146108b1576040517f08c379a00000000000000000000000000000000000000000000000000000000081526004016108a89061363f565b60405180910390fd5b6000835167ffffffffffffffff8111156108ce576108cd613aac565b5b6040519080825280602002602001820160405280156108fc5781602001602082028036833780820191505090505b50905060005b84518110156109795761094985828151811061092157610920613a7d565b5b602002602001015185838151811061093c5761093b613a7d565b5b60200260200101516103f8565b82828151811061095c5761095b613a7d565b5b60200260200101818152505080610972906139d6565b9050610902565b508091505092915050565b61098c6112bf565b73ffffffffffffffffffffffffffffffffffffffff166109aa610cce565b73ffffffffffffffffffffffffffffffffffffffff1614610a00576040517f08c379a00000000000000000000000000000000000000000000000000000000081526004016109f7906135bf565b60405180910390fd5b600073ffffffffffffffffffffffffffffffffffffffff168173ffffffffffffffffffffffffffffffffffffffff161415610a70576040517f08c379a0000000000000000000000000000000000000000000000000000000008152600401610a67906135df565b60405180910390fd5b6001600660008373ffffffffffffffffffffffffffffffffffffffff1673ffffffffffffffffffffffffffffffffffffffff16815260200190815260200160002060006101000a81548160ff0219169083151502179055508073ffffffffffffffffffffffffffffffffffffffff167f9f07806603d9ce5f05f18135b25e758c93200416277ce0ef850f1f7c02c3f54660405160405180910390a250565b610b19838383611817565b60005b8251811015610b8f576000838281518110610b3a57610b39613a7d565b5b60200260200101511415610b7c57818181518110610b5b57610b5a613a7d565b5b602002602001015160046000828254610b749190613889565b925050819055505b8080610b87906139d6565b915050610b1c565b50505050565b610b9d6112bf565b73ffffffffffffffffffffffffffffffffffffffff16610bbb610cce565b73ffffffffffffffffffffffffffffffffffffffff1614610c11576040517f08c379a0000000000000000000000000000000000000000000000000000000008152600401610c08906135bf565b60405180910390fd5b610c1b60006118b4565b565b610c256112bf565b73ffffffffffffffffffffffffffffffffffffffff16610c43610cce565b73ffffffffffffffffffffffffffffffffffffffff1614610c99576040517f08c379a0000000000000000000000000000000000000000000000000000000008152600401610c90906135bf565b60405180910390fd5b610ca584848484611978565b6000831415610cc8578160046000828254610cc09190613833565b925050819055505b50505050565b60008060009054906101000a900473ffffffffffffffffffffffffffffffffffffffff16905090565b6000600454905090565b8173ffffffffffffffffffffffffffffffffffffffff16610d206112bf565b73ffffffffffffffffffffffffffffffffffffffff161415610d77576040517f08c379a0000000000000000000000000000000000000000000000000000000008152600401610d6e9061361f565b60405180910390fd5b8060026000610d846112bf565b73ffffffffffffffffffffffffffffffffffffffff1673ffffffffffffffffffffffffffffffffffffffff16815260200190815260200160002060008473ffffffffffffffffffffffffffffffffffffffff1673ffffffffffffffffffffffffffffffffffffffff16815260200190815260200160002060006101000a81548160ff0219169083151502179055508173ffffffffffffffffffffffffffffffffffffffff16610e316112bf565b73ffffffffffffffffffffffffffffffffffffffff167f17307eab39ab6107e8899845ad3d59bd9653f200f220920489ca2b5937696c3183604051610e769190613442565b60405180910390a35050565b600181565b6001151560066000610e976112bf565b73ffffffffffffffffffffffffffffffffffffffff1673ffffffffffffffffffffffffffffffffffffffff16815260200190815260200160002060009054906101000a900460ff1615151480610f265750610ef0610cce565b73ffffffffffffffffffffffffffffffffffffffff16610f0e6112bf565b73ffffffffffffffffffffffffffffffffffffffff16145b610f65576040517f08c379a0000000000000000000000000000000000000000000000000000000008152600401610f5c906135ff565b60405180910390fd5b42600581905550565b6000600554905090565b6000600260008473ffffffffffffffffffffffffffffffffffffffff1673ffffffffffffffffffffffffffffffffffffffff16815260200190815260200160002060008373ffffffffffffffffffffffffffffffffffffffff1673ffffffffffffffffffffffffffffffffffffffff16815260200190815260200160002060009054906101000a900460ff16905092915050565b6110146112bf565b73ffffffffffffffffffffffffffffffffffffffff168573ffffffffffffffffffffffffffffffffffffffff16148061105a5750611059856110546112bf565b610f78565b5b611099576040517f08c379a00000000000000000000000000000000000000000000000000000000081526004016110909061351f565b60405180910390fd5b6110a68585858585611b0f565b5050505050565b6110b56112bf565b73ffffffffffffffffffffffffffffffffffffffff166110d3610cce565b73ffffffffffffffffffffffffffffffffffffffff1614611129576040517f08c379a0000000000000000000000000000000000000000000000000000000008152600401611120906135bf565b60405180910390fd5b600073ffffffffffffffffffffffffffffffffffffffff168173ffffffffffffffffffffffffffffffffffffffff161415611199576040517f08c379a0000000000000000000000000000000000000000000000000000000008152600401611190906134df565b60405180910390fd5b6111a2816118b4565b50565b6111ad6112bf565b73ffffffffffffffffffffffffffffffffffffffff168373ffffffffffffffffffffffffffffffffffffffff1614806111f357506111f2836111ed6112bf565b610f78565b5b611232576040517f08c379a00000000000000000000000000000000000000000000000000000000081526004016112299061351f565b60405180910390fd5b61123d838383611d94565b505050565b600080823b905060008111915050919050565b60007f01ffc9a7000000000000000000000000000000000000000000000000000000007bffffffffffffffffffffffffffffffffffffffffffffffffffffffff1916827bffffffffffffffffffffffffffffffffffffffffffffffffffffffff1916149050919050565b600033905090565b80600390805190602001906112dd9291906126b6565b5050565b600073ffffffffffffffffffffffffffffffffffffffff168473ffffffffffffffffffffffffffffffffffffffff161415611351576040517f08c379a00000000000000000000000000000000000000000000000000000000081526004016113489061367f565b60405180910390fd5b8151835114611395576040517f08c379a000000000000000000000000000000000000000000000000000000000815260040161138c9061365f565b60405180910390fd5b600061139f6112bf565b90506113b081600087878787611fb3565b60005b845181101561146a578381815181106113cf576113ce613a7d565b5b6020026020010151600160008784815181106113ee576113ed613a7d565b5b6020026020010151815260200190815260200160002060008873ffffffffffffffffffffffffffffffffffffffff1673ffffffffffffffffffffffffffffffffffffffff16815260200190815260200160002060008282546114509190613833565b925050819055508080611462906139d6565b9150506113b3565b508473ffffffffffffffffffffffffffffffffffffffff16600073ffffffffffffffffffffffffffffffffffffffff168273ffffffffffffffffffffffffffffffffffffffff167f4a39dc06d4c0dbc64b70af90fd698a233a518aa5d07e595d983b8c0526c8f7fb87876040516114e292919061340b565b60405180910390a46114f981600087878787611fbb565b5050505050565b8151835114611544576040517f08c379a000000000000000000000000000000000000000000000000000000000815260040161153b9061365f565b60405180910390fd5b600073ffffffffffffffffffffffffffffffffffffffff168473ffffffffffffffffffffffffffffffffffffffff1614156115b4576040517f08c379a00000000000000000000000000000000000000000000000000000000081526004016115ab9061353f565b60405180910390fd5b60006115be6112bf565b90506115ce818787878787611fb3565b60005b84518110156117825760008582815181106115ef576115ee613a7d565b5b60200260200101519050600085838151811061160e5761160d613a7d565b5b6020026020010151905060006001600084815260200190815260200160002060008b73ffffffffffffffffffffffffffffffffffffffff1673ffffffffffffffffffffffffffffffffffffffff168152602001908152602001600020549050818110156116b0576040517f08c379a00000000000000000000000000000000000000000000000000000000081526004016116a79061359f565b60405180910390fd5b8181036001600085815260200190815260200160002060008c73ffffffffffffffffffffffffffffffffffffffff1673ffffffffffffffffffffffffffffffffffffffff16815260200190815260200160002081905550816001600085815260200190815260200160002060008b73ffffffffffffffffffffffffffffffffffffffff1673ffffffffffffffffffffffffffffffffffffffff16815260200190815260200160002060008282546117679190613833565b925050819055505050508061177b906139d6565b90506115d1565b508473ffffffffffffffffffffffffffffffffffffffff168673ffffffffffffffffffffffffffffffffffffffff168273ffffffffffffffffffffffffffffffffffffffff167f4a39dc06d4c0dbc64b70af90fd698a233a518aa5d07e595d983b8c0526c8f7fb87876040516117f992919061340b565b60405180910390a461180f818787878787611fbb565b505050505050565b61181f6112bf565b73ffffffffffffffffffffffffffffffffffffffff168373ffffffffffffffffffffffffffffffffffffffff16148061186557506118648361185f6112bf565b610f78565b5b6118a4576040517f08c379a000000000000000000000000000000000000000000000000000000000815260040161189b9061351f565b60405180910390fd5b6118af8383836121a2565b505050565b60008060009054906101000a900473ffffffffffffffffffffffffffffffffffffffff169050816000806101000a81548173ffffffffffffffffffffffffffffffffffffffff021916908373ffffffffffffffffffffffffffffffffffffffff1602179055508173ffffffffffffffffffffffffffffffffffffffff168173ffffffffffffffffffffffffffffffffffffffff167f8be0079c531659141344cd1fd0a4f28419497f9722a3daafe3b4186f6b6457e060405160405180910390a35050565b600073ffffffffffffffffffffffffffffffffffffffff168473ffffffffffffffffffffffffffffffffffffffff1614156119e8576040517f08c379a00000000000000000000000000000000000000000000000000000000081526004016119df9061367f565b60405180910390fd5b60006119f26112bf565b9050611a1381600087611a0488612455565b611a0d88612455565b87611fb3565b826001600086815260200190815260200160002060008773ffffffffffffffffffffffffffffffffffffffff1673ffffffffffffffffffffffffffffffffffffffff1681526020019081526020016000206000828254611a739190613833565b925050819055508473ffffffffffffffffffffffffffffffffffffffff16600073ffffffffffffffffffffffffffffffffffffffff168273ffffffffffffffffffffffffffffffffffffffff167fc3d58168c5ae7397731d063d5bbf3d657854427343f4c083240f7aacaa2d0f628787604051611af19291906136ba565b60405180910390a4611b08816000878787876124cf565b5050505050565b600073ffffffffffffffffffffffffffffffffffffffff168473ffffffffffffffffffffffffffffffffffffffff161415611b7f576040517f08c379a0000000000000000000000000000000000000000000000000000000008152600401611b769061353f565b60405180910390fd5b6000611b896112bf565b9050611ba9818787611b9a88612455565b611ba388612455565b87611fb3565b60006001600086815260200190815260200160002060008873ffffffffffffffffffffffffffffffffffffffff1673ffffffffffffffffffffffffffffffffffffffff16815260200190815260200160002054905083811015611c41576040517f08c379a0000000000000000000000000000000000000000000000000000000008152600401611c389061359f565b60405180910390fd5b8381036001600087815260200190815260200160002060008973ffffffffffffffffffffffffffffffffffffffff1673ffffffffffffffffffffffffffffffffffffffff16815260200190815260200160002081905550836001600087815260200190815260200160002060008873ffffffffffffffffffffffffffffffffffffffff1673ffffffffffffffffffffffffffffffffffffffff1681526020019081526020016000206000828254611cf89190613833565b925050819055508573ffffffffffffffffffffffffffffffffffffffff168773ffffffffffffffffffffffffffffffffffffffff168373ffffffffffffffffffffffffffffffffffffffff167fc3d58168c5ae7397731d063d5bbf3d657854427343f4c083240f7aacaa2d0f628888604051611d759291906136ba565b60405180910390a4611d8b8288888888886124cf565b50505050505050565b600073ffffffffffffffffffffffffffffffffffffffff168373ffffffffffffffffffffffffffffffffffffffff161415611e04576040517f08c379a0000000000000000000000000000000000000000000000000000000008152600401611dfb9061357f565b60405180910390fd5b6000611e0e6112bf565b9050611e3e81856000611e2087612455565b611e2987612455565b60405180602001604052806000815250611fb3565b60006001600085815260200190815260200160002060008673ffffffffffffffffffffffffffffffffffffffff1673ffffffffffffffffffffffffffffffffffffffff16815260200190815260200160002054905082811015611ed6576040517f08c379a0000000000000000000000000000000000000000000000000000000008152600401611ecd906134ff565b60405180910390fd5b8281036001600086815260200190815260200160002060008773ffffffffffffffffffffffffffffffffffffffff1673ffffffffffffffffffffffffffffffffffffffff16815260200190815260200160002081905550600073ffffffffffffffffffffffffffffffffffffffff168573ffffffffffffffffffffffffffffffffffffffff168373ffffffffffffffffffffffffffffffffffffffff167fc3d58168c5ae7397731d063d5bbf3d657854427343f4c083240f7aacaa2d0f628787604051611fa49291906136ba565b60405180910390a45050505050565b505050505050565b611fda8473ffffffffffffffffffffffffffffffffffffffff16611242565b1561219a578373ffffffffffffffffffffffffffffffffffffffff1663bc197c8187878686866040518663ffffffff1660e01b8152600401612020959493929190613327565b602060405180830381600087803b15801561203a57600080fd5b505af192505050801561206b57506040513d601f19601f820116820180604052508101906120689190612ef2565b60015b61211157612077613adb565b806308c379a014156120d4575061208c614001565b8061209757506120d6565b806040517f08c379a00000000000000000000000000000000000000000000000000000000081526004016120cb919061345d565b60405180910390fd5b505b6040517f08c379a00000000000000000000000000000000000000000000000000000000081526004016121089061347f565b60405180910390fd5b63bc197c8160e01b7bffffffffffffffffffffffffffffffffffffffffffffffffffffffff1916817bffffffffffffffffffffffffffffffffffffffffffffffffffffffff191614612198576040517f08c379a000000000000000000000000000000000000000000000000000000000815260040161218f9061349f565b60405180910390fd5b505b505050505050565b600073ffffffffffffffffffffffffffffffffffffffff168373ffffffffffffffffffffffffffffffffffffffff161415612212576040517f08c379a00000000000000000000000000000000000000000000000000000000081526004016122099061357f565b60405180910390fd5b8051825114612256576040517f08c379a000000000000000000000000000000000000000000000000000000000815260040161224d9061365f565b60405180910390fd5b60006122606112bf565b905061228081856000868660405180602001604052806000815250611fb3565b60005b83518110156123cf5760008482815181106122a1576122a0613a7d565b5b6020026020010151905060008483815181106122c0576122bf613a7d565b5b6020026020010151905060006001600084815260200190815260200160002060008973ffffffffffffffffffffffffffffffffffffffff1673ffffffffffffffffffffffffffffffffffffffff16815260200190815260200160002054905081811015612362576040517f08c379a0000000000000000000000000000000000000000000000000000000008152600401612359906134ff565b60405180910390fd5b8181036001600085815260200190815260200160002060008a73ffffffffffffffffffffffffffffffffffffffff1673ffffffffffffffffffffffffffffffffffffffff1681526020019081526020016000208190555050505080806123c7906139d6565b915050612283565b50600073ffffffffffffffffffffffffffffffffffffffff168473ffffffffffffffffffffffffffffffffffffffff168273ffffffffffffffffffffffffffffffffffffffff167f4a39dc06d4c0dbc64b70af90fd698a233a518aa5d07e595d983b8c0526c8f7fb868660405161244792919061340b565b60405180910390a450505050565b60606000600167ffffffffffffffff81111561247457612473613aac565b5b6040519080825280602002602001820160405280156124a25781602001602082028036833780820191505090505b50905082816000815181106124ba576124b9613a7d565b5b60200260200101818152505080915050919050565b6124ee8473ffffffffffffffffffffffffffffffffffffffff16611242565b156126ae578373ffffffffffffffffffffffffffffffffffffffff1663f23a6e6187878686866040518663ffffffff1660e01b815260040161253495949392919061338f565b602060405180830381600087803b15801561254e57600080fd5b505af192505050801561257f57506040513d601f19601f8201168201806040525081019061257c9190612ef2565b60015b6126255761258b613adb565b806308c379a014156125e857506125a0614001565b806125ab57506125ea565b806040517f08c379a00000000000000000000000000000000000000000000000000000000081526004016125df919061345d565b60405180910390fd5b505b6040517f08c379a000000000000000000000000000000000000000000000000000000000815260040161261c9061347f565b60405180910390fd5b63f23a6e6160e01b7bffffffffffffffffffffffffffffffffffffffffffffffffffffffff1916817bffffffffffffffffffffffffffffffffffffffffffffffffffffffff1916146126ac576040517f08c379a00000000000000000000000000000000000000000000000000000000081526004016126a39061349f565b60405180910390fd5b505b505050505050565b8280546126c290613973565b90600052602060002090601f0160209004810192826126e4576000855561272b565b82601f106126fd57805160ff191683800117855561272b565b8280016001018555821561272b579182015b8281111561272a57825182559160200191906001019061270f565b5b509050612738919061273c565b5090565b5b8082111561275557600081600090555060010161273d565b5090565b600061276c61276784613708565b6136e3565b9050808382526020820190508285602086028201111561278f5761278e613b02565b5b60005b858110156127bf57816127a588826128bd565b845260208401935060208301925050600181019050612792565b5050509392505050565b60006127dc6127d784613734565b6136e3565b905080838252602082019050828560208602820111156127ff576127fe613b02565b5b60005b8581101561282f578161281588826129c9565b845260208401935060208301925050600181019050612802565b5050509392505050565b600061284c61284784613760565b6136e3565b90508281526020810184848401111561286857612867613b07565b5b612873848285613931565b509392505050565b600061288e61288984613791565b6136e3565b9050828152602081018484840111156128aa576128a9613b07565b5b6128b5848285613931565b509392505050565b6000813590506128cc81614097565b92915050565b600082601f8301126128e7576128e6613afd565b5b81356128f7848260208601612759565b91505092915050565b600082601f83011261291557612914613afd565b5b81356129258482602086016127c9565b91505092915050565b60008135905061293d816140ae565b92915050565b600081359050612952816140c5565b92915050565b600081519050612967816140c5565b92915050565b600082601f83011261298257612981613afd565b5b8135612992848260208601612839565b91505092915050565b600082601f8301126129b0576129af613afd565b5b81356129c084826020860161287b565b91505092915050565b6000813590506129d8816140dc565b92915050565b6000602082840312156129f4576129f3613b11565b5b6000612a02848285016128bd565b91505092915050565b60008060408385031215612a2257612a21613b11565b5b6000612a30858286016128bd565b9250506020612a41858286016128bd565b9150509250929050565b600080600080600060a08688031215612a6757612a66613b11565b5b6000612a75888289016128bd565b9550506020612a86888289016128bd565b945050604086013567ffffffffffffffff811115612aa757612aa6613b0c565b5b612ab388828901612900565b935050606086013567ffffffffffffffff811115612ad457612ad3613b0c565b5b612ae088828901612900565b925050608086013567ffffffffffffffff811115612b0157612b00613b0c565b5b612b0d8882890161296d565b9150509295509295909350565b600080600080600060a08688031215612b3657612b35613b11565b5b6000612b44888289016128bd565b9550506020612b55888289016128bd565b9450506040612b66888289016129c9565b9350506060612b77888289016129c9565b925050608086013567ffffffffffffffff811115612b9857612b97613b0c565b5b612ba48882890161296d565b9150509295509295909350565b600080600060608486031215612bca57612bc9613b11565b5b6000612bd8868287016128bd565b935050602084013567ffffffffffffffff811115612bf957612bf8613b0c565b5b612c0586828701612900565b925050604084013567ffffffffffffffff811115612c2657612c25613b0c565b5b612c3286828701612900565b9150509250925092565b60008060008060808587031215612c5657612c55613b11565b5b6000612c64878288016128bd565b945050602085013567ffffffffffffffff811115612c8557612c84613b0c565b5b612c9187828801612900565b935050604085013567ffffffffffffffff811115612cb257612cb1613b0c565b5b612cbe87828801612900565b925050606085013567ffffffffffffffff811115612cdf57612cde613b0c565b5b612ceb8782880161296d565b91505092959194509250565b60008060408385031215612d0e57612d0d613b11565b5b6000612d1c858286016128bd565b9250506020612d2d8582860161292e565b9150509250929050565b60008060408385031215612d4e57612d4d613b11565b5b6000612d5c858286016128bd565b9250506020612d6d858286016129c9565b9150509250929050565b600080600060608486031215612d9057612d8f613b11565b5b6000612d9e868287016128bd565b9350506020612daf868287016129c9565b9250506040612dc0868287016129c9565b9150509250925092565b60008060008060808587031215612de457612de3613b11565b5b6000612df2878288016128bd565b9450506020612e03878288016129c9565b9350506040612e14878288016129c9565b925050606085013567ffffffffffffffff811115612e3557612e34613b0c565b5b612e418782880161296d565b91505092959194509250565b60008060408385031215612e6457612e63613b11565b5b600083013567ffffffffffffffff811115612e8257612e81613b0c565b5b612e8e858286016128d2565b925050602083013567ffffffffffffffff811115612eaf57612eae613b0c565b5b612ebb85828601612900565b9150509250929050565b600060208284031215612edb57612eda613b11565b5b6000612ee984828501612943565b91505092915050565b600060208284031215612f0857612f07613b11565b5b6000612f1684828501612958565b91505092915050565b600060208284031215612f3557612f34613b11565b5b600082013567ffffffffffffffff811115612f5357612f52613b0c565b5b612f5f8482850161299b565b91505092915050565b600060208284031215612f7e57612f7d613b11565b5b6000612f8c848285016129c9565b91505092915050565b6000612fa183836132ee565b60208301905092915050565b612fb6816138bd565b82525050565b6000612fc7826137d2565b612fd18185613800565b9350612fdc836137c2565b8060005b8381101561300d578151612ff48882612f95565b9750612fff836137f3565b925050600181019050612fe0565b5085935050505092915050565b613023816138cf565b82525050565b6000613034826137dd565b61303e8185613811565b935061304e818560208601613940565b61305781613b16565b840191505092915050565b600061306d826137e8565b6130778185613822565b9350613087818560208601613940565b61309081613b16565b840191505092915050565b60006130a8603483613822565b91506130b382613b34565b604082019050919050565b60006130cb602883613822565b91506130d682613b83565b604082019050919050565b60006130ee602b83613822565b91506130f982613bd2565b604082019050919050565b6000613111602683613822565b915061311c82613c21565b604082019050919050565b6000613134602483613822565b915061313f82613c70565b604082019050919050565b6000613157602983613822565b915061316282613cbf565b604082019050919050565b600061317a602583613822565b915061318582613d0e565b604082019050919050565b600061319d603283613822565b91506131a882613d5d565b604082019050919050565b60006131c0602383613822565b91506131cb82613dac565b604082019050919050565b60006131e3602a83613822565b91506131ee82613dfb565b604082019050919050565b6000613206602083613822565b915061321182613e4a565b602082019050919050565b6000613229602083613822565b915061323482613e73565b602082019050919050565b600061324c601a83613822565b915061325782613e9c565b602082019050919050565b600061326f602983613822565b915061327a82613ec5565b604082019050919050565b6000613292602983613822565b915061329d82613f14565b604082019050919050565b60006132b5602883613822565b91506132c082613f63565b604082019050919050565b60006132d8602183613822565b91506132e382613fb2565b604082019050919050565b6132f781613927565b82525050565b61330681613927565b82525050565b60006020820190506133216000830184612fad565b92915050565b600060a08201905061333c6000830188612fad565b6133496020830187612fad565b818103604083015261335b8186612fbc565b9050818103606083015261336f8185612fbc565b905081810360808301526133838184613029565b90509695505050505050565b600060a0820190506133a46000830188612fad565b6133b16020830187612fad565b6133be60408301866132fd565b6133cb60608301856132fd565b81810360808301526133dd8184613029565b90509695505050505050565b600060208201905081810360008301526134038184612fbc565b905092915050565b600060408201905081810360008301526134258185612fbc565b905081810360208301526134398184612fbc565b90509392505050565b6000602082019050613457600083018461301a565b92915050565b600060208201905081810360008301526134778184613062565b905092915050565b600060208201905081810360008301526134988161309b565b9050919050565b600060208201905081810360008301526134b8816130be565b9050919050565b600060208201905081810360008301526134d8816130e1565b9050919050565b600060208201905081810360008301526134f881613104565b9050919050565b6000602082019050818103600083015261351881613127565b9050919050565b600060208201905081810360008301526135388161314a565b9050919050565b600060208201905081810360008301526135588161316d565b9050919050565b6000602082019050818103600083015261357881613190565b9050919050565b60006020820190508181036000830152613598816131b3565b9050919050565b600060208201905081810360008301526135b8816131d6565b9050919050565b600060208201905081810360008301526135d8816131f9565b9050919050565b600060208201905081810360008301526135f88161321c565b9050919050565b600060208201905081810360008301526136188161323f565b9050919050565b6000602082019050818103600083015261363881613262565b9050919050565b6000602082019050818103600083015261365881613285565b9050919050565b60006020820190508181036000830152613678816132a8565b9050919050565b60006020820190508181036000830152613698816132cb565b9050919050565b60006020820190506136b460008301846132fd565b92915050565b60006040820190506136cf60008301856132fd565b6136dc60208301846132fd565b9392505050565b60006136ed6136fe565b90506136f982826139a5565b919050565b6000604051905090565b600067ffffffffffffffff82111561372357613722613aac565b5b602082029050602081019050919050565b600067ffffffffffffffff82111561374f5761374e613aac565b5b602082029050602081019050919050565b600067ffffffffffffffff82111561377b5761377a613aac565b5b61378482613b16565b9050602081019050919050565b600067ffffffffffffffff8211156137ac576137ab613aac565b5b6137b582613b16565b9050602081019050919050565b6000819050602082019050919050565b600081519050919050565b600081519050919050565b600081519050919050565b6000602082019050919050565b600082825260208201905092915050565b600082825260208201905092915050565b600082825260208201905092915050565b600061383e82613927565b915061384983613927565b9250827fffffffffffffffffffffffffffffffffffffffffffffffffffffffffffffffff0382111561387e5761387d613a1f565b5b828201905092915050565b600061389482613927565b915061389f83613927565b9250828210156138b2576138b1613a1f565b5b828203905092915050565b60006138c882613907565b9050919050565b60008115159050919050565b60007fffffffff0000000000000000000000000000000000000000000000000000000082169050919050565b600073ffffffffffffffffffffffffffffffffffffffff82169050919050565b6000819050919050565b82818337600083830152505050565b60005b8381101561395e578082015181840152602081019050613943565b8381111561396d576000848401525b50505050565b6000600282049050600182168061398b57607f821691505b6020821081141561399f5761399e613a4e565b5b50919050565b6139ae82613b16565b810181811067ffffffffffffffff821117156139cd576139cc613aac565b5b80604052505050565b60006139e182613927565b91507fffffffffffffffffffffffffffffffffffffffffffffffffffffffffffffffff821415613a1457613a13613a1f565b5b600182019050919050565b7f4e487b7100000000000000000000000000000000000000000000000000000000600052601160045260246000fd5b7f4e487b7100000000000000000000000000000000000000000000000000000000600052602260045260246000fd5b7f4e487b7100000000000000000000000000000000000000000000000000000000600052603260045260246000fd5b7f4e487b7100000000000000000000000000000000000000000000000000000000600052604160045260246000fd5b600060033d1115613afa5760046000803e613af7600051613b27565b90505b90565b600080fd5b600080fd5b600080fd5b600080fd5b600080fd5b6000601f19601f8301169050919050565b60008160e01c9050919050565b7f455243313135353a207472616e7366657220746f206e6f6e204552433131353560008201527f526563656976657220696d706c656d656e746572000000000000000000000000602082015250565b7f455243313135353a204552433131353552656365697665722072656a6563746560008201527f6420746f6b656e73000000000000000000000000000000000000000000000000602082015250565b7f455243313135353a2062616c616e636520717565727920666f7220746865207a60008201527f65726f2061646472657373000000000000000000000000000000000000000000602082015250565b7f4f776e61626c653a206e6577206f776e657220697320746865207a65726f206160008201527f6464726573730000000000000000000000000000000000000000000000000000602082015250565b7f455243313135353a206275726e20616d6f756e7420657863656564732062616c60008201527f616e636500000000000000000000000000000000000000000000000000000000602082015250565b7f455243313135353a2063616c6c6572206973206e6f74206f776e6572206e6f7260008201527f20617070726f7665640000000000000000000000000000000000000000000000602082015250565b7f455243313135353a207472616e7366657220746f20746865207a65726f20616460008201527f6472657373000000000000000000000000000000000000000000000000000000602082015250565b7f455243313135353a207472616e736665722063616c6c6572206973206e6f742060008201527f6f776e6572206e6f7220617070726f7665640000000000000000000000000000602082015250565b7f455243313135353a206275726e2066726f6d20746865207a65726f206164647260008201527f6573730000000000000000000000000000000000000000000000000000000000602082015250565b7f455243313135353a20696e73756666696369656e742062616c616e636520666f60008201527f72207472616e7366657200000000000000000000000000000000000000000000602082015250565b7f4f776e61626c653a2063616c6c6572206973206e6f7420746865206f776e6572600082015250565b7f4e65772070726f73756d657220697320746865207a65726f2061646472657373600082015250565b7f43616c6c6572206973206e6f74207468652070726f73756d6572000000000000600082015250565b7f455243313135353a2073657474696e6720617070726f76616c2073746174757360008201527f20666f722073656c660000000000000000000000000000000000000000000000602082015250565b7f455243313135353a206163636f756e747320616e6420696473206c656e67746860008201527f206d69736d617463680000000000000000000000000000000000000000000000602082015250565b7f455243313135353a2069647320616e6420616d6f756e7473206c656e6774682060008201527f6d69736d61746368000000000000000000000000000000000000000000000000602082015250565b7f455243313135353a206d696e7420746f20746865207a65726f2061646472657360008201527f7300000000000000000000000000000000000000000000000000000000000000602082015250565b600060443d101561401157614094565b6140196136fe565b60043d036004823e80513d602482011167ffffffffffffffff82111715614041575050614094565b808201805167ffffffffffffffff81111561405f5750505050614094565b80602083010160043d03850181111561407c575050505050614094565b61408b826020018501866139a5565b82955050505050505b90565b6140a0816138bd565b81146140ab57600080fd5b50565b6140b7816138cf565b81146140c257600080fd5b50565b6140ce816138db565b81146140d957600080fd5b50565b6140e581613927565b81146140f057600080fd5b5056fea2646970667358221220073f416a9cc961fa1f1d3ec09fb41860931c4643b74ae8fff2c64157e82be86564736f6c6343000806003368747470733a2f2f746b786b64303135392e6769746875622e696f2f656e6572677974782d6574682f657263313135356d6574612f746f6b656e2f7b69647d2e6a736f6e",
  "immutableReferences": {},
  "source": "// SPDX-License-Identifier: MIT\r\npragma solidity ^0.8.0;\r\n\r\nimport \"@openzeppelin/contracts/access/Ownable.sol\";\r\nimport \"@openzeppelin/contracts/token/ERC1155/extensions/ERC1155Burnable.sol\";\r\n\r\ncontract EnergyAsset is Ownable, ERC1155Burnable {\r\n    uint256 public constant E_TOKEN = 0;\r\n    uint256 private _totalTokenSupply;\r\n    uint256 public constant E_CERTIFICATION = 1;\r\n    uint256 private _creation_time = block.timestamp;\r\n\r\n    event AddProsumer(address indexed newProsumer);\r\n\r\n    mapping(address => bool) prosumers;\r\n\r\n    modifier isProsumer {\r\n        require(prosumers[_msgSender()] == true || _msgSender() == owner(), \"Caller is not the prosumer\");\r\n        _;\r\n    }\r\n    modifier onlyAfter(uint start, uint minutes_after) {\r\n        require(block.timestamp > start + minutes_after * 1 minutes, \"It's called too early\");\r\n        _;\r\n    }\r\n\r\n    function addProsumer(address new_prosumer) public onlyOwner {\r\n        require(new_prosumer != address(0), \"New prosumer is the zero address\");\r\n        prosumers[new_prosumer] = true;\r\n\r\n        emit AddProsumer(new_prosumer);\r\n    }\r\n\r\n    function setCreationTime() public isProsumer {\r\n        _creation_time = block.timestamp;\r\n    }\r\n\r\n    function getCreationTime() public view returns (uint256) {\r\n        return _creation_time;\r\n    }\r\n\r\n    function getEtokenBalance() public view returns (uint256) {\r\n        return _totalTokenSupply;\r\n    }\r\n\r\n    constructor() ERC1155(\"https://tkxkd0159.github.io/energytx-eth/erc1155meta/token/{id}.json\") {\r\n        _mint(_msgSender(), E_TOKEN, 10**18, \"\");\r\n        _totalTokenSupply += 10**18;\r\n        _mint(_msgSender(), E_CERTIFICATION, 1, \"\");\r\n    }\r\n\r\n    function setURI(string memory new_uri) public onlyOwner {\r\n        _setURI(new_uri);\r\n    }\r\n\r\n    function mint(address account, uint256 id, uint256 amount, bytes memory data)\r\n        public\r\n        onlyOwner\r\n    {\r\n\r\n        _mint(account, id, amount, data);\r\n        if (id == E_TOKEN) {\r\n            _totalTokenSupply += amount;\r\n        }\r\n\r\n    }\r\n\r\n    function mintBatch(address to, uint256[] memory ids, uint256[] memory amounts, bytes memory data)\r\n        public\r\n        onlyOwner\r\n    {\r\n        _mintBatch(to, ids, amounts, data);\r\n        for (uint i=0; i < ids.length; i++) {\r\n            if (ids[i] == E_TOKEN) {\r\n                _totalTokenSupply += amounts[i];\r\n            }\r\n        }\r\n    }\r\n\r\n    function burnBatch(\r\n        address account,\r\n        uint256[] memory ids,\r\n        uint256[] memory amounts\r\n    ) public override {\r\n        super.burnBatch(account, ids, amounts);\r\n        for (uint i=0; i < ids.length; i++) {\r\n            if (ids[i] == E_TOKEN) {\r\n                _totalTokenSupply -= amounts[i];\r\n            }\r\n        }\r\n    }\r\n}\r\n",
  "sourcePath": "C:/Users/admin/Documents/SourceCode/GitHub/energytx-eth/energy/contracts/energy_asset.sol",
  "compiler": {
    "name": "solc",
    "version": "0.8.6+commit.11564f7e.Emscripten.clang"
  },
  "schemaVersion": "3.4.1",
  "updatedAt": "2021-07-11T22:09:07.717Z",
  "networkType": "ethereum",
  "devdoc": {
    "kind": "dev",
    "methods": {
      "balanceOf(address,uint256)": {
        "details": "See {IERC1155-balanceOf}. Requirements: - `account` cannot be the zero address."
      },
      "balanceOfBatch(address[],uint256[])": {
        "details": "See {IERC1155-balanceOfBatch}. Requirements: - `accounts` and `ids` must have the same length."
      },
      "isApprovedForAll(address,address)": {
        "details": "See {IERC1155-isApprovedForAll}."
      },
      "owner()": {
        "details": "Returns the address of the current owner."
      },
      "renounceOwnership()": {
        "details": "Leaves the contract without owner. It will not be possible to call `onlyOwner` functions anymore. Can only be called by the current owner. NOTE: Renouncing ownership will leave the contract without an owner, thereby removing any functionality that is only available to the owner."
      },
      "safeBatchTransferFrom(address,address,uint256[],uint256[],bytes)": {
        "details": "See {IERC1155-safeBatchTransferFrom}."
      },
      "safeTransferFrom(address,address,uint256,uint256,bytes)": {
        "details": "See {IERC1155-safeTransferFrom}."
      },
      "setApprovalForAll(address,bool)": {
        "details": "See {IERC1155-setApprovalForAll}."
      },
      "supportsInterface(bytes4)": {
        "details": "See {IERC165-supportsInterface}."
      },
      "transferOwnership(address)": {
        "details": "Transfers ownership of the contract to a new account (`newOwner`). Can only be called by the current owner."
      },
      "uri(uint256)": {
        "details": "See {IERC1155MetadataURI-uri}. This implementation returns the same URI for *all* token types. It relies on the token type ID substitution mechanism https://eips.ethereum.org/EIPS/eip-1155#metadata[defined in the EIP]. Clients calling this function must replace the `\\{id\\}` substring with the actual token type ID."
      }
    },
    "version": 1
  },
  "userdoc": {
    "kind": "user",
    "methods": {},
    "version": 1
  }
}