{
  "contractName": "EnergyAsset",
  "abi": [
    {
      "inputs": [],
      "stateMutability": "nonpayable",
      "type": "constructor"
    },
    {
      "anonymous": false,
      "inputs": [
        {
          "indexed": true,
          "internalType": "address",
          "name": "newProsumer",
          "type": "address"
        }
      ],
      "name": "AddProsumer",
      "type": "event"
    },
    {
      "anonymous": false,
      "inputs": [
        {
          "indexed": true,
          "internalType": "address",
          "name": "account",
          "type": "address"
        },
        {
          "indexed": true,
          "internalType": "address",
          "name": "operator",
          "type": "address"
        },
        {
          "indexed": false,
          "internalType": "bool",
          "name": "approved",
          "type": "bool"
        }
      ],
      "name": "ApprovalForAll",
      "type": "event"
    },
    {
      "anonymous": false,
      "inputs": [
        {
          "indexed": true,
          "internalType": "address",
          "name": "previousOwner",
          "type": "address"
        },
        {
          "indexed": true,
          "internalType": "address",
          "name": "newOwner",
          "type": "address"
        }
      ],
      "name": "OwnershipTransferred",
      "type": "event"
    },
    {
      "anonymous": false,
      "inputs": [
        {
          "indexed": true,
          "internalType": "address",
          "name": "operator",
          "type": "address"
        },
        {
          "indexed": true,
          "internalType": "address",
          "name": "from",
          "type": "address"
        },
        {
          "indexed": true,
          "internalType": "address",
          "name": "to",
          "type": "address"
        },
        {
          "indexed": false,
          "internalType": "uint256[]",
          "name": "ids",
          "type": "uint256[]"
        },
        {
          "indexed": false,
          "internalType": "uint256[]",
          "name": "values",
          "type": "uint256[]"
        }
      ],
      "name": "TransferBatch",
      "type": "event"
    },
    {
      "anonymous": false,
      "inputs": [
        {
          "indexed": true,
          "internalType": "address",
          "name": "operator",
          "type": "address"
        },
        {
          "indexed": true,
          "internalType": "address",
          "name": "from",
          "type": "address"
        },
        {
          "indexed": true,
          "internalType": "address",
          "name": "to",
          "type": "address"
        },
        {
          "indexed": false,
          "internalType": "uint256",
          "name": "id",
          "type": "uint256"
        },
        {
          "indexed": false,
          "internalType": "uint256",
          "name": "value",
          "type": "uint256"
        }
      ],
      "name": "TransferSingle",
      "type": "event"
    },
    {
      "anonymous": false,
      "inputs": [
        {
          "indexed": false,
          "internalType": "string",
          "name": "value",
          "type": "string"
        },
        {
          "indexed": true,
          "internalType": "uint256",
          "name": "id",
          "type": "uint256"
        }
      ],
      "name": "URI",
      "type": "event"
    },
    {
      "inputs": [],
      "name": "E_CERTIFICATION",
      "outputs": [
        {
          "internalType": "uint256",
          "name": "",
          "type": "uint256"
        }
      ],
      "stateMutability": "view",
      "type": "function",
      "constant": true
    },
    {
      "inputs": [],
      "name": "E_TOKEN",
      "outputs": [
        {
          "internalType": "uint256",
          "name": "",
          "type": "uint256"
        }
      ],
      "stateMutability": "view",
      "type": "function",
      "constant": true
    },
    {
      "inputs": [
        {
          "internalType": "address",
          "name": "account",
          "type": "address"
        },
        {
          "internalType": "uint256",
          "name": "id",
          "type": "uint256"
        }
      ],
      "name": "balanceOf",
      "outputs": [
        {
          "internalType": "uint256",
          "name": "",
          "type": "uint256"
        }
      ],
      "stateMutability": "view",
      "type": "function",
      "constant": true
    },
    {
      "inputs": [
        {
          "internalType": "address[]",
          "name": "accounts",
          "type": "address[]"
        },
        {
          "internalType": "uint256[]",
          "name": "ids",
          "type": "uint256[]"
        }
      ],
      "name": "balanceOfBatch",
      "outputs": [
        {
          "internalType": "uint256[]",
          "name": "",
          "type": "uint256[]"
        }
      ],
      "stateMutability": "view",
      "type": "function",
      "constant": true
    },
    {
      "inputs": [
        {
          "internalType": "address",
          "name": "account",
          "type": "address"
        },
        {
          "internalType": "uint256",
          "name": "id",
          "type": "uint256"
        },
        {
          "internalType": "uint256",
          "name": "value",
          "type": "uint256"
        }
      ],
      "name": "burn",
      "outputs": [],
      "stateMutability": "nonpayable",
      "type": "function"
    },
    {
      "inputs": [
        {
          "internalType": "address",
          "name": "account",
          "type": "address"
        },
        {
          "internalType": "address",
          "name": "operator",
          "type": "address"
        }
      ],
      "name": "isApprovedForAll",
      "outputs": [
        {
          "internalType": "bool",
          "name": "",
          "type": "bool"
        }
      ],
      "stateMutability": "view",
      "type": "function",
      "constant": true
    },
    {
      "inputs": [],
      "name": "owner",
      "outputs": [
        {
          "internalType": "address",
          "name": "",
          "type": "address"
        }
      ],
      "stateMutability": "view",
      "type": "function",
      "constant": true
    },
    {
      "inputs": [],
      "name": "renounceOwnership",
      "outputs": [],
      "stateMutability": "nonpayable",
      "type": "function"
    },
    {
      "inputs": [
        {
          "internalType": "address",
          "name": "from",
          "type": "address"
        },
        {
          "internalType": "address",
          "name": "to",
          "type": "address"
        },
        {
          "internalType": "uint256[]",
          "name": "ids",
          "type": "uint256[]"
        },
        {
          "internalType": "uint256[]",
          "name": "amounts",
          "type": "uint256[]"
        },
        {
          "internalType": "bytes",
          "name": "data",
          "type": "bytes"
        }
      ],
      "name": "safeBatchTransferFrom",
      "outputs": [],
      "stateMutability": "nonpayable",
      "type": "function"
    },
    {
      "inputs": [
        {
          "internalType": "address",
          "name": "from",
          "type": "address"
        },
        {
          "internalType": "address",
          "name": "to",
          "type": "address"
        },
        {
          "internalType": "uint256",
          "name": "id",
          "type": "uint256"
        },
        {
          "internalType": "uint256",
          "name": "amount",
          "type": "uint256"
        },
        {
          "internalType": "bytes",
          "name": "data",
          "type": "bytes"
        }
      ],
      "name": "safeTransferFrom",
      "outputs": [],
      "stateMutability": "nonpayable",
      "type": "function"
    },
    {
      "inputs": [
        {
          "internalType": "address",
          "name": "operator",
          "type": "address"
        },
        {
          "internalType": "bool",
          "name": "approved",
          "type": "bool"
        }
      ],
      "name": "setApprovalForAll",
      "outputs": [],
      "stateMutability": "nonpayable",
      "type": "function"
    },
    {
      "inputs": [
        {
          "internalType": "bytes4",
          "name": "interfaceId",
          "type": "bytes4"
        }
      ],
      "name": "supportsInterface",
      "outputs": [
        {
          "internalType": "bool",
          "name": "",
          "type": "bool"
        }
      ],
      "stateMutability": "view",
      "type": "function",
      "constant": true
    },
    {
      "inputs": [
        {
          "internalType": "address",
          "name": "newOwner",
          "type": "address"
        }
      ],
      "name": "transferOwnership",
      "outputs": [],
      "stateMutability": "nonpayable",
      "type": "function"
    },
    {
      "inputs": [
        {
          "internalType": "uint256",
          "name": "",
          "type": "uint256"
        }
      ],
      "name": "uri",
      "outputs": [
        {
          "internalType": "string",
          "name": "",
          "type": "string"
        }
      ],
      "stateMutability": "view",
      "type": "function",
      "constant": true
    },
    {
      "inputs": [
        {
          "internalType": "address",
          "name": "new_prosumer",
          "type": "address"
        }
      ],
      "name": "addProsumer",
      "outputs": [],
      "stateMutability": "nonpayable",
      "type": "function"
    },
    {
      "inputs": [],
      "name": "setCreationTime",
      "outputs": [],
      "stateMutability": "nonpayable",
      "type": "function"
    },
    {
      "inputs": [],
      "name": "getCreationTime",
      "outputs": [
        {
          "internalType": "uint256",
          "name": "",
          "type": "uint256"
        }
      ],
      "stateMutability": "view",
      "type": "function",
      "constant": true
    },
    {
      "inputs": [],
      "name": "getEtokenBalance",
      "outputs": [
        {
          "internalType": "uint256",
          "name": "",
          "type": "uint256"
        }
      ],
      "stateMutability": "view",
      "type": "function",
      "constant": true
    },
    {
      "inputs": [
        {
          "internalType": "string",
          "name": "new_uri",
          "type": "string"
        }
      ],
      "name": "setURI",
      "outputs": [],
      "stateMutability": "nonpayable",
      "type": "function"
    },
    {
      "inputs": [
        {
          "internalType": "address",
          "name": "account",
          "type": "address"
        },
        {
          "internalType": "uint256",
          "name": "id",
          "type": "uint256"
        },
        {
          "internalType": "uint256",
          "name": "amount",
          "type": "uint256"
        },
        {
          "internalType": "bytes",
          "name": "data",
          "type": "bytes"
        }
      ],
      "name": "mint",
      "outputs": [],
      "stateMutability": "nonpayable",
      "type": "function"
    },
    {
      "inputs": [
        {
          "internalType": "address",
          "name": "to",
          "type": "address"
        },
        {
          "internalType": "uint256[]",
          "name": "ids",
          "type": "uint256[]"
        },
        {
          "internalType": "uint256[]",
          "name": "amounts",
          "type": "uint256[]"
        },
        {
          "internalType": "bytes",
          "name": "data",
          "type": "bytes"
        }
      ],
      "name": "mintBatch",
      "outputs": [],
      "stateMutability": "nonpayable",
      "type": "function"
    },
    {
      "inputs": [
        {
          "internalType": "address",
          "name": "account",
          "type": "address"
        },
        {
          "internalType": "uint256[]",
          "name": "ids",
          "type": "uint256[]"
        },
        {
          "internalType": "uint256[]",
          "name": "amounts",
          "type": "uint256[]"
        }
      ],
      "name": "burnBatch",
      "outputs": [],
      "stateMutability": "nonpayable",
      "type": "function"
    },
    {
      "inputs": [],
      "name": "getMaxId",
      "outputs": [
        {
          "internalType": "uint256",
          "name": "",
          "type": "uint256"
        }
      ],
      "stateMutability": "view",
      "type": "function",
      "constant": true
    }
  ],
  "bytecode": "0x60806040524260055560006006553480156200001a57600080fd5b5060405180608001604052806044815260200162004f9b604491396200005562000049620000fe60201b60201c565b6200010660201b60201c565b6200006681620001ca60201b60201c565b50620000a26200007b620000fe60201b60201c565b6000670de0b6b3a764000060405180602001604052806000815250620001e660201b60201c565b670de0b6b3a764000060046000828254620000be9190620009c1565b92505081905550620000f8620000d9620000fe60201b60201c565b60018060405180602001604052806000815250620001e660201b60201c565b62000dd7565b600033905090565b60008060009054906101000a900473ffffffffffffffffffffffffffffffffffffffff169050816000806101000a81548173ffffffffffffffffffffffffffffffffffffffff021916908373ffffffffffffffffffffffffffffffffffffffff1602179055508173ffffffffffffffffffffffffffffffffffffffff168173ffffffffffffffffffffffffffffffffffffffff167f8be0079c531659141344cd1fd0a4f28419497f9722a3daafe3b4186f6b6457e060405160405180910390a35050565b8060039080519060200190620001e292919062000652565b5050565b600073ffffffffffffffffffffffffffffffffffffffff168473ffffffffffffffffffffffffffffffffffffffff16141562000259576040517f08c379a0000000000000000000000000000000000000000000000000000000008152600401620002509062000930565b60405180910390fd5b60006200026b620000fe60201b60201c565b9050620002a4816000876200028688620003ac60201b60201c565b6200029788620003ac60201b60201c565b876200042d60201b60201c565b826001600086815260200190815260200160002060008773ffffffffffffffffffffffffffffffffffffffff1673ffffffffffffffffffffffffffffffffffffffff1681526020019081526020016000206000828254620003069190620009c1565b925050819055508473ffffffffffffffffffffffffffffffffffffffff16600073ffffffffffffffffffffffffffffffffffffffff168273ffffffffffffffffffffffffffffffffffffffff167fc3d58168c5ae7397731d063d5bbf3d657854427343f4c083240f7aacaa2d0f6287876040516200038692919062000952565b60405180910390a4620003a5816000878787876200043560201b60201c565b5050505050565b60606000600167ffffffffffffffff811115620003ce57620003cd62000bb7565b5b604051908082528060200260200182016040528015620003fd5781602001602082028036833780820191505090505b509050828160008151811062000418576200041762000b88565b5b60200260200101818152505080915050919050565b505050505050565b620004618473ffffffffffffffffffffffffffffffffffffffff166200063f60201b620012cd1760201c565b1562000637578373ffffffffffffffffffffffffffffffffffffffff1663f23a6e6187878686866040518663ffffffff1660e01b8152600401620004aa95949392919062000864565b602060405180830381600087803b158015620004c557600080fd5b505af1925050508015620004f957506040513d601f19601f82011682018060405250810190620004f6919062000719565b60015b620005ab576200050862000be6565b806308c379a014156200056c57506200052062000d1b565b806200052d57506200056e565b806040517f08c379a0000000000000000000000000000000000000000000000000000000008152600401620005639190620008c8565b60405180910390fd5b505b6040517f08c379a0000000000000000000000000000000000000000000000000000000008152600401620005a290620008ec565b60405180910390fd5b63f23a6e6160e01b7bffffffffffffffffffffffffffffffffffffffffffffffffffffffff1916817bffffffffffffffffffffffffffffffffffffffffffffffffffffffff19161462000635576040517f08c379a00000000000000000000000000000000000000000000000000000000081526004016200062c906200090e565b60405180910390fd5b505b505050505050565b600080823b905060008111915050919050565b828054620006609062000abe565b90600052602060002090601f016020900481019282620006845760008555620006d0565b82601f106200069f57805160ff1916838001178555620006d0565b82800160010185558215620006d0579182015b82811115620006cf578251825591602001919060010190620006b2565b5b509050620006df9190620006e3565b5090565b5b80821115620006fe576000816000905550600101620006e4565b5090565b600081519050620007138162000dbd565b92915050565b60006020828403121562000732576200073162000c0b565b5b6000620007428482850162000702565b91505092915050565b620007568162000a1e565b82525050565b6000620007698262000989565b6200077581856200099f565b93506200078781856020860162000a88565b620007928162000c10565b840191505092915050565b6000620007aa8262000994565b620007b68185620009b0565b9350620007c881856020860162000a88565b620007d38162000c10565b840191505092915050565b6000620007ed603483620009b0565b9150620007fa8262000c2e565b604082019050919050565b600062000814602883620009b0565b9150620008218262000c7d565b604082019050919050565b60006200083b602183620009b0565b9150620008488262000ccc565b604082019050919050565b6200085e8162000a7e565b82525050565b600060a0820190506200087b60008301886200074b565b6200088a60208301876200074b565b62000899604083018662000853565b620008a8606083018562000853565b8181036080830152620008bc81846200075c565b90509695505050505050565b60006020820190508181036000830152620008e481846200079d565b905092915050565b600060208201905081810360008301526200090781620007de565b9050919050565b60006020820190508181036000830152620009298162000805565b9050919050565b600060208201905081810360008301526200094b816200082c565b9050919050565b600060408201905062000969600083018562000853565b62000978602083018462000853565b9392505050565b6000604051905090565b600081519050919050565b600081519050919050565b600082825260208201905092915050565b600082825260208201905092915050565b6000620009ce8262000a7e565b9150620009db8362000a7e565b9250827fffffffffffffffffffffffffffffffffffffffffffffffffffffffffffffffff0382111562000a135762000a1262000b2a565b5b828201905092915050565b600062000a2b8262000a5e565b9050919050565b60007fffffffff0000000000000000000000000000000000000000000000000000000082169050919050565b600073ffffffffffffffffffffffffffffffffffffffff82169050919050565b6000819050919050565b60005b8381101562000aa857808201518184015260208101905062000a8b565b8381111562000ab8576000848401525b50505050565b6000600282049050600182168062000ad757607f821691505b6020821081141562000aee5762000aed62000b59565b5b50919050565b62000aff8262000c10565b810181811067ffffffffffffffff8211171562000b215762000b2062000bb7565b5b80604052505050565b7f4e487b7100000000000000000000000000000000000000000000000000000000600052601160045260246000fd5b7f4e487b7100000000000000000000000000000000000000000000000000000000600052602260045260246000fd5b7f4e487b7100000000000000000000000000000000000000000000000000000000600052603260045260246000fd5b7f4e487b7100000000000000000000000000000000000000000000000000000000600052604160045260246000fd5b600060033d111562000c085760046000803e62000c0560005162000c21565b90505b90565b600080fd5b6000601f19601f8301169050919050565b60008160e01c9050919050565b7f455243313135353a207472616e7366657220746f206e6f6e204552433131353560008201527f526563656976657220696d706c656d656e746572000000000000000000000000602082015250565b7f455243313135353a204552433131353552656365697665722072656a6563746560008201527f6420746f6b656e73000000000000000000000000000000000000000000000000602082015250565b7f455243313135353a206d696e7420746f20746865207a65726f2061646472657360008201527f7300000000000000000000000000000000000000000000000000000000000000602082015250565b600060443d101562000d2d5762000dba565b62000d376200097f565b60043d036004823e80513d602482011167ffffffffffffffff8211171562000d6157505062000dba565b808201805167ffffffffffffffff81111562000d81575050505062000dba565b80602083010160043d03850181111562000da057505050505062000dba565b62000db18260200185018662000af4565b82955050505050505b90565b62000dc88162000a32565b811462000dd457600080fd5b50565b6141b48062000de76000396000f3fe608060405234801561001057600080fd5b506004361061014c5760003560e01c8063731133e9116100c3578063de47fcae1161007c578063de47fcae14610375578063e6519a351461037f578063e985e9c51461039d578063f242432a146103cd578063f2fde38b146103e9578063f5298aca146104055761014c565b8063731133e9146102c55780638da5cb5b146102e15780638f24592b146102ff578063a22cb4651461031d578063b866c70214610339578063d477a712146103575761014c565b80631f7fdffa116101155780631f7fdffa1461021b5780632eb2c2d6146102375780634e1273f41461025357806350736190146102835780636b20c4541461029f578063715018a6146102bb5761014c565b8062fdd58e1461015157806301ffc9a71461018157806302fe5305146101b15780630e89341c146101cd57806319452317146101fd575b600080fd5b61016b60048036038101906101669190612dc2565b610421565b604051610178919061372a565b60405180910390f35b61019b60048036038101906101969190612f50565b6104eb565b6040516101a891906134cd565b60405180910390f35b6101cb60048036038101906101c69190612faa565b6105cd565b005b6101e760048036038101906101e29190612ff3565b610655565b6040516101f491906134e8565b60405180910390f35b6102056106e9565b604051610212919061372a565b60405180910390f35b61023560048036038101906102309190612cc7565b6106ee565b005b610251600480360381019061024c9190612ad6565b610839565b005b61026d60048036038101906102689190612ed8565b6108da565b60405161027a9190613474565b60405180910390f35b61029d60048036038101906102989190612a69565b6109f3565b005b6102b960048036038101906102b49190612c3c565b610b7d565b005b6102c3610c04565b005b6102df60048036038101906102da9190612e55565b610c8c565b005b6102e9610d4f565b6040516102f69190613397565b60405180910390f35b610307610d78565b604051610314919061372a565b60405180910390f35b61033760048036038101906103329190612d82565b610d82565b005b610341610f03565b60405161034e919061372a565b60405180910390f35b61035f610f08565b60405161036c919061372a565b60405180910390f35b61037d610f12565b005b610387610ff9565b604051610394919061372a565b60405180910390f35b6103b760048036038101906103b29190612a96565b611003565b6040516103c491906134cd565b60405180910390f35b6103e760048036038101906103e29190612ba5565b611097565b005b61040360048036038101906103fe9190612a69565b611138565b005b61041f600480360381019061041a9190612e02565b611230565b005b60008073ffffffffffffffffffffffffffffffffffffffff168373ffffffffffffffffffffffffffffffffffffffff161415610492576040517f08c379a00000000000000000000000000000000000000000000000000000000081526004016104899061354a565b60405180910390fd5b6001600083815260200190815260200160002060008473ffffffffffffffffffffffffffffffffffffffff1673ffffffffffffffffffffffffffffffffffffffff16815260200190815260200160002054905092915050565b60007fd9b67a26000000000000000000000000000000000000000000000000000000007bffffffffffffffffffffffffffffffffffffffffffffffffffffffff1916827bffffffffffffffffffffffffffffffffffffffffffffffffffffffff191614806105b657507f0e89341c000000000000000000000000000000000000000000000000000000007bffffffffffffffffffffffffffffffffffffffffffffffffffffffff1916827bffffffffffffffffffffffffffffffffffffffffffffffffffffffff1916145b806105c657506105c5826112e0565b5b9050919050565b6105d561134a565b73ffffffffffffffffffffffffffffffffffffffff166105f3610d4f565b73ffffffffffffffffffffffffffffffffffffffff1614610649576040517f08c379a00000000000000000000000000000000000000000000000000000000081526004016106409061364a565b60405180910390fd5b61065281611352565b50565b606060038054610664906139fe565b80601f0160208091040260200160405190810160405280929190818152602001828054610690906139fe565b80156106dd5780601f106106b2576101008083540402835291602001916106dd565b820191906000526020600020905b8154815290600101906020018083116106c057829003601f168201915b50505050509050919050565b600081565b6106f661134a565b73ffffffffffffffffffffffffffffffffffffffff16610714610d4f565b73ffffffffffffffffffffffffffffffffffffffff161461076a576040517f08c379a00000000000000000000000000000000000000000000000000000000081526004016107619061364a565b60405180910390fd5b6107768484848461136c565b60005b835181101561083257600084828151811061079757610796613b08565b5b602002602001015114156107d9578281815181106107b8576107b7613b08565b5b6020026020010151600460008282546107d191906138be565b925050819055505b6006548482815181106107ef576107ee613b08565b5b6020026020010151111561081f578381815181106108105761080f613b08565b5b60200260200101516006819055505b808061082a90613a61565b915050610779565b5050505050565b61084161134a565b73ffffffffffffffffffffffffffffffffffffffff168573ffffffffffffffffffffffffffffffffffffffff16148061088757506108868561088161134a565b611003565b5b6108c6576040517f08c379a00000000000000000000000000000000000000000000000000000000081526004016108bd906135ea565b60405180910390fd5b6108d3858585858561158b565b5050505050565b60608151835114610920576040517f08c379a0000000000000000000000000000000000000000000000000000000008152600401610917906136ca565b60405180910390fd5b6000835167ffffffffffffffff81111561093d5761093c613b37565b5b60405190808252806020026020018201604052801561096b5781602001602082028036833780820191505090505b50905060005b84518110156109e8576109b88582815181106109905761098f613b08565b5b60200260200101518583815181106109ab576109aa613b08565b5b6020026020010151610421565b8282815181106109cb576109ca613b08565b5b602002602001018181525050806109e190613a61565b9050610971565b508091505092915050565b6109fb61134a565b73ffffffffffffffffffffffffffffffffffffffff16610a19610d4f565b73ffffffffffffffffffffffffffffffffffffffff1614610a6f576040517f08c379a0000000000000000000000000000000000000000000000000000000008152600401610a669061364a565b60405180910390fd5b600073ffffffffffffffffffffffffffffffffffffffff168173ffffffffffffffffffffffffffffffffffffffff161415610adf576040517f08c379a0000000000000000000000000000000000000000000000000000000008152600401610ad69061366a565b60405180910390fd5b6001600760008373ffffffffffffffffffffffffffffffffffffffff1673ffffffffffffffffffffffffffffffffffffffff16815260200190815260200160002060006101000a81548160ff0219169083151502179055508073ffffffffffffffffffffffffffffffffffffffff167f9f07806603d9ce5f05f18135b25e758c93200416277ce0ef850f1f7c02c3f54660405160405180910390a250565b610b888383836118a2565b60005b8251811015610bfe576000838281518110610ba957610ba8613b08565b5b60200260200101511415610beb57818181518110610bca57610bc9613b08565b5b602002602001015160046000828254610be39190613914565b925050819055505b8080610bf690613a61565b915050610b8b565b50505050565b610c0c61134a565b73ffffffffffffffffffffffffffffffffffffffff16610c2a610d4f565b73ffffffffffffffffffffffffffffffffffffffff1614610c80576040517f08c379a0000000000000000000000000000000000000000000000000000000008152600401610c779061364a565b60405180910390fd5b610c8a600061193f565b565b610c9461134a565b73ffffffffffffffffffffffffffffffffffffffff16610cb2610d4f565b73ffffffffffffffffffffffffffffffffffffffff1614610d08576040517f08c379a0000000000000000000000000000000000000000000000000000000008152600401610cff9061364a565b60405180910390fd5b610d1484848484611a03565b6000831415610d37578160046000828254610d2f91906138be565b925050819055505b600654831115610d4957826006819055505b50505050565b60008060009054906101000a900473ffffffffffffffffffffffffffffffffffffffff16905090565b6000600454905090565b8173ffffffffffffffffffffffffffffffffffffffff16610da161134a565b73ffffffffffffffffffffffffffffffffffffffff161415610df8576040517f08c379a0000000000000000000000000000000000000000000000000000000008152600401610def906136aa565b60405180910390fd5b8060026000610e0561134a565b73ffffffffffffffffffffffffffffffffffffffff1673ffffffffffffffffffffffffffffffffffffffff16815260200190815260200160002060008473ffffffffffffffffffffffffffffffffffffffff1673ffffffffffffffffffffffffffffffffffffffff16815260200190815260200160002060006101000a81548160ff0219169083151502179055508173ffffffffffffffffffffffffffffffffffffffff16610eb261134a565b73ffffffffffffffffffffffffffffffffffffffff167f17307eab39ab6107e8899845ad3d59bd9653f200f220920489ca2b5937696c3183604051610ef791906134cd565b60405180910390a35050565b600181565b6000600654905090565b6001151560076000610f2261134a565b73ffffffffffffffffffffffffffffffffffffffff1673ffffffffffffffffffffffffffffffffffffffff16815260200190815260200160002060009054906101000a900460ff1615151480610fb15750610f7b610d4f565b73ffffffffffffffffffffffffffffffffffffffff16610f9961134a565b73ffffffffffffffffffffffffffffffffffffffff16145b610ff0576040517f08c379a0000000000000000000000000000000000000000000000000000000008152600401610fe79061368a565b60405180910390fd5b42600581905550565b6000600554905090565b6000600260008473ffffffffffffffffffffffffffffffffffffffff1673ffffffffffffffffffffffffffffffffffffffff16815260200190815260200160002060008373ffffffffffffffffffffffffffffffffffffffff1673ffffffffffffffffffffffffffffffffffffffff16815260200190815260200160002060009054906101000a900460ff16905092915050565b61109f61134a565b73ffffffffffffffffffffffffffffffffffffffff168573ffffffffffffffffffffffffffffffffffffffff1614806110e557506110e4856110df61134a565b611003565b5b611124576040517f08c379a000000000000000000000000000000000000000000000000000000000815260040161111b906135aa565b60405180910390fd5b6111318585858585611b9a565b5050505050565b61114061134a565b73ffffffffffffffffffffffffffffffffffffffff1661115e610d4f565b73ffffffffffffffffffffffffffffffffffffffff16146111b4576040517f08c379a00000000000000000000000000000000000000000000000000000000081526004016111ab9061364a565b60405180910390fd5b600073ffffffffffffffffffffffffffffffffffffffff168173ffffffffffffffffffffffffffffffffffffffff161415611224576040517f08c379a000000000000000000000000000000000000000000000000000000000815260040161121b9061356a565b60405180910390fd5b61122d8161193f565b50565b61123861134a565b73ffffffffffffffffffffffffffffffffffffffff168373ffffffffffffffffffffffffffffffffffffffff16148061127e575061127d8361127861134a565b611003565b5b6112bd576040517f08c379a00000000000000000000000000000000000000000000000000000000081526004016112b4906135aa565b60405180910390fd5b6112c8838383611e1f565b505050565b600080823b905060008111915050919050565b60007f01ffc9a7000000000000000000000000000000000000000000000000000000007bffffffffffffffffffffffffffffffffffffffffffffffffffffffff1916827bffffffffffffffffffffffffffffffffffffffffffffffffffffffff1916149050919050565b600033905090565b8060039080519060200190611368929190612741565b5050565b600073ffffffffffffffffffffffffffffffffffffffff168473ffffffffffffffffffffffffffffffffffffffff1614156113dc576040517f08c379a00000000000000000000000000000000000000000000000000000000081526004016113d39061370a565b60405180910390fd5b8151835114611420576040517f08c379a0000000000000000000000000000000000000000000000000000000008152600401611417906136ea565b60405180910390fd5b600061142a61134a565b905061143b8160008787878761203e565b60005b84518110156114f55783818151811061145a57611459613b08565b5b60200260200101516001600087848151811061147957611478613b08565b5b6020026020010151815260200190815260200160002060008873ffffffffffffffffffffffffffffffffffffffff1673ffffffffffffffffffffffffffffffffffffffff16815260200190815260200160002060008282546114db91906138be565b9250508190555080806114ed90613a61565b91505061143e565b508473ffffffffffffffffffffffffffffffffffffffff16600073ffffffffffffffffffffffffffffffffffffffff168273ffffffffffffffffffffffffffffffffffffffff167f4a39dc06d4c0dbc64b70af90fd698a233a518aa5d07e595d983b8c0526c8f7fb878760405161156d929190613496565b60405180910390a461158481600087878787612046565b5050505050565b81518351146115cf576040517f08c379a00000000000000000000000000000000000000000000000000000000081526004016115c6906136ea565b60405180910390fd5b600073ffffffffffffffffffffffffffffffffffffffff168473ffffffffffffffffffffffffffffffffffffffff16141561163f576040517f08c379a0000000000000000000000000000000000000000000000000000000008152600401611636906135ca565b60405180910390fd5b600061164961134a565b905061165981878787878761203e565b60005b845181101561180d57600085828151811061167a57611679613b08565b5b60200260200101519050600085838151811061169957611698613b08565b5b6020026020010151905060006001600084815260200190815260200160002060008b73ffffffffffffffffffffffffffffffffffffffff1673ffffffffffffffffffffffffffffffffffffffff1681526020019081526020016000205490508181101561173b576040517f08c379a00000000000000000000000000000000000000000000000000000000081526004016117329061362a565b60405180910390fd5b8181036001600085815260200190815260200160002060008c73ffffffffffffffffffffffffffffffffffffffff1673ffffffffffffffffffffffffffffffffffffffff16815260200190815260200160002081905550816001600085815260200190815260200160002060008b73ffffffffffffffffffffffffffffffffffffffff1673ffffffffffffffffffffffffffffffffffffffff16815260200190815260200160002060008282546117f291906138be565b925050819055505050508061180690613a61565b905061165c565b508473ffffffffffffffffffffffffffffffffffffffff168673ffffffffffffffffffffffffffffffffffffffff168273ffffffffffffffffffffffffffffffffffffffff167f4a39dc06d4c0dbc64b70af90fd698a233a518aa5d07e595d983b8c0526c8f7fb8787604051611884929190613496565b60405180910390a461189a818787878787612046565b505050505050565b6118aa61134a565b73ffffffffffffffffffffffffffffffffffffffff168373ffffffffffffffffffffffffffffffffffffffff1614806118f057506118ef836118ea61134a565b611003565b5b61192f576040517f08c379a0000000000000000000000000000000000000000000000000000000008152600401611926906135aa565b60405180910390fd5b61193a83838361222d565b505050565b60008060009054906101000a900473ffffffffffffffffffffffffffffffffffffffff169050816000806101000a81548173ffffffffffffffffffffffffffffffffffffffff021916908373ffffffffffffffffffffffffffffffffffffffff1602179055508173ffffffffffffffffffffffffffffffffffffffff168173ffffffffffffffffffffffffffffffffffffffff167f8be0079c531659141344cd1fd0a4f28419497f9722a3daafe3b4186f6b6457e060405160405180910390a35050565b600073ffffffffffffffffffffffffffffffffffffffff168473ffffffffffffffffffffffffffffffffffffffff161415611a73576040517f08c379a0000000000000000000000000000000000000000000000000000000008152600401611a6a9061370a565b60405180910390fd5b6000611a7d61134a565b9050611a9e81600087611a8f886124e0565b611a98886124e0565b8761203e565b826001600086815260200190815260200160002060008773ffffffffffffffffffffffffffffffffffffffff1673ffffffffffffffffffffffffffffffffffffffff1681526020019081526020016000206000828254611afe91906138be565b925050819055508473ffffffffffffffffffffffffffffffffffffffff16600073ffffffffffffffffffffffffffffffffffffffff168273ffffffffffffffffffffffffffffffffffffffff167fc3d58168c5ae7397731d063d5bbf3d657854427343f4c083240f7aacaa2d0f628787604051611b7c929190613745565b60405180910390a4611b938160008787878761255a565b5050505050565b600073ffffffffffffffffffffffffffffffffffffffff168473ffffffffffffffffffffffffffffffffffffffff161415611c0a576040517f08c379a0000000000000000000000000000000000000000000000000000000008152600401611c01906135ca565b60405180910390fd5b6000611c1461134a565b9050611c34818787611c25886124e0565b611c2e886124e0565b8761203e565b60006001600086815260200190815260200160002060008873ffffffffffffffffffffffffffffffffffffffff1673ffffffffffffffffffffffffffffffffffffffff16815260200190815260200160002054905083811015611ccc576040517f08c379a0000000000000000000000000000000000000000000000000000000008152600401611cc39061362a565b60405180910390fd5b8381036001600087815260200190815260200160002060008973ffffffffffffffffffffffffffffffffffffffff1673ffffffffffffffffffffffffffffffffffffffff16815260200190815260200160002081905550836001600087815260200190815260200160002060008873ffffffffffffffffffffffffffffffffffffffff1673ffffffffffffffffffffffffffffffffffffffff1681526020019081526020016000206000828254611d8391906138be565b925050819055508573ffffffffffffffffffffffffffffffffffffffff168773ffffffffffffffffffffffffffffffffffffffff168373ffffffffffffffffffffffffffffffffffffffff167fc3d58168c5ae7397731d063d5bbf3d657854427343f4c083240f7aacaa2d0f628888604051611e00929190613745565b60405180910390a4611e1682888888888861255a565b50505050505050565b600073ffffffffffffffffffffffffffffffffffffffff168373ffffffffffffffffffffffffffffffffffffffff161415611e8f576040517f08c379a0000000000000000000000000000000000000000000000000000000008152600401611e869061360a565b60405180910390fd5b6000611e9961134a565b9050611ec981856000611eab876124e0565b611eb4876124e0565b6040518060200160405280600081525061203e565b60006001600085815260200190815260200160002060008673ffffffffffffffffffffffffffffffffffffffff1673ffffffffffffffffffffffffffffffffffffffff16815260200190815260200160002054905082811015611f61576040517f08c379a0000000000000000000000000000000000000000000000000000000008152600401611f589061358a565b60405180910390fd5b8281036001600086815260200190815260200160002060008773ffffffffffffffffffffffffffffffffffffffff1673ffffffffffffffffffffffffffffffffffffffff16815260200190815260200160002081905550600073ffffffffffffffffffffffffffffffffffffffff168573ffffffffffffffffffffffffffffffffffffffff168373ffffffffffffffffffffffffffffffffffffffff167fc3d58168c5ae7397731d063d5bbf3d657854427343f4c083240f7aacaa2d0f62878760405161202f929190613745565b60405180910390a45050505050565b505050505050565b6120658473ffffffffffffffffffffffffffffffffffffffff166112cd565b15612225578373ffffffffffffffffffffffffffffffffffffffff1663bc197c8187878686866040518663ffffffff1660e01b81526004016120ab9594939291906133b2565b602060405180830381600087803b1580156120c557600080fd5b505af19250505080156120f657506040513d601f19601f820116820180604052508101906120f39190612f7d565b60015b61219c57612102613b66565b806308c379a0141561215f575061211761408c565b806121225750612161565b806040517f08c379a000000000000000000000000000000000000000000000000000000000815260040161215691906134e8565b60405180910390fd5b505b6040517f08c379a00000000000000000000000000000000000000000000000000000000081526004016121939061350a565b60405180910390fd5b63bc197c8160e01b7bffffffffffffffffffffffffffffffffffffffffffffffffffffffff1916817bffffffffffffffffffffffffffffffffffffffffffffffffffffffff191614612223576040517f08c379a000000000000000000000000000000000000000000000000000000000815260040161221a9061352a565b60405180910390fd5b505b505050505050565b600073ffffffffffffffffffffffffffffffffffffffff168373ffffffffffffffffffffffffffffffffffffffff16141561229d576040517f08c379a00000000000000000000000000000000000000000000000000000000081526004016122949061360a565b60405180910390fd5b80518251146122e1576040517f08c379a00000000000000000000000000000000000000000000000000000000081526004016122d8906136ea565b60405180910390fd5b60006122eb61134a565b905061230b8185600086866040518060200160405280600081525061203e565b60005b835181101561245a57600084828151811061232c5761232b613b08565b5b60200260200101519050600084838151811061234b5761234a613b08565b5b6020026020010151905060006001600084815260200190815260200160002060008973ffffffffffffffffffffffffffffffffffffffff1673ffffffffffffffffffffffffffffffffffffffff168152602001908152602001600020549050818110156123ed576040517f08c379a00000000000000000000000000000000000000000000000000000000081526004016123e49061358a565b60405180910390fd5b8181036001600085815260200190815260200160002060008a73ffffffffffffffffffffffffffffffffffffffff1673ffffffffffffffffffffffffffffffffffffffff16815260200190815260200160002081905550505050808061245290613a61565b91505061230e565b50600073ffffffffffffffffffffffffffffffffffffffff168473ffffffffffffffffffffffffffffffffffffffff168273ffffffffffffffffffffffffffffffffffffffff167f4a39dc06d4c0dbc64b70af90fd698a233a518aa5d07e595d983b8c0526c8f7fb86866040516124d2929190613496565b60405180910390a450505050565b60606000600167ffffffffffffffff8111156124ff576124fe613b37565b5b60405190808252806020026020018201604052801561252d5781602001602082028036833780820191505090505b509050828160008151811061254557612544613b08565b5b60200260200101818152505080915050919050565b6125798473ffffffffffffffffffffffffffffffffffffffff166112cd565b15612739578373ffffffffffffffffffffffffffffffffffffffff1663f23a6e6187878686866040518663ffffffff1660e01b81526004016125bf95949392919061341a565b602060405180830381600087803b1580156125d957600080fd5b505af192505050801561260a57506040513d601f19601f820116820180604052508101906126079190612f7d565b60015b6126b057612616613b66565b806308c379a01415612673575061262b61408c565b806126365750612675565b806040517f08c379a000000000000000000000000000000000000000000000000000000000815260040161266a91906134e8565b60405180910390fd5b505b6040517f08c379a00000000000000000000000000000000000000000000000000000000081526004016126a79061350a565b60405180910390fd5b63f23a6e6160e01b7bffffffffffffffffffffffffffffffffffffffffffffffffffffffff1916817bffffffffffffffffffffffffffffffffffffffffffffffffffffffff191614612737576040517f08c379a000000000000000000000000000000000000000000000000000000000815260040161272e9061352a565b60405180910390fd5b505b505050505050565b82805461274d906139fe565b90600052602060002090601f01602090048101928261276f57600085556127b6565b82601f1061278857805160ff19168380011785556127b6565b828001600101855582156127b6579182015b828111156127b557825182559160200191906001019061279a565b5b5090506127c391906127c7565b5090565b5b808211156127e05760008160009055506001016127c8565b5090565b60006127f76127f284613793565b61376e565b9050808382526020820190508285602086028201111561281a57612819613b8d565b5b60005b8581101561284a57816128308882612948565b84526020840193506020830192505060018101905061281d565b5050509392505050565b6000612867612862846137bf565b61376e565b9050808382526020820190508285602086028201111561288a57612889613b8d565b5b60005b858110156128ba57816128a08882612a54565b84526020840193506020830192505060018101905061288d565b5050509392505050565b60006128d76128d2846137eb565b61376e565b9050828152602081018484840111156128f3576128f2613b92565b5b6128fe8482856139bc565b509392505050565b60006129196129148461381c565b61376e565b90508281526020810184848401111561293557612934613b92565b5b6129408482856139bc565b509392505050565b60008135905061295781614122565b92915050565b600082601f83011261297257612971613b88565b5b81356129828482602086016127e4565b91505092915050565b600082601f8301126129a05761299f613b88565b5b81356129b0848260208601612854565b91505092915050565b6000813590506129c881614139565b92915050565b6000813590506129dd81614150565b92915050565b6000815190506129f281614150565b92915050565b600082601f830112612a0d57612a0c613b88565b5b8135612a1d8482602086016128c4565b91505092915050565b600082601f830112612a3b57612a3a613b88565b5b8135612a4b848260208601612906565b91505092915050565b600081359050612a6381614167565b92915050565b600060208284031215612a7f57612a7e613b9c565b5b6000612a8d84828501612948565b91505092915050565b60008060408385031215612aad57612aac613b9c565b5b6000612abb85828601612948565b9250506020612acc85828601612948565b9150509250929050565b600080600080600060a08688031215612af257612af1613b9c565b5b6000612b0088828901612948565b9550506020612b1188828901612948565b945050604086013567ffffffffffffffff811115612b3257612b31613b97565b5b612b3e8882890161298b565b935050606086013567ffffffffffffffff811115612b5f57612b5e613b97565b5b612b6b8882890161298b565b925050608086013567ffffffffffffffff811115612b8c57612b8b613b97565b5b612b98888289016129f8565b9150509295509295909350565b600080600080600060a08688031215612bc157612bc0613b9c565b5b6000612bcf88828901612948565b9550506020612be088828901612948565b9450506040612bf188828901612a54565b9350506060612c0288828901612a54565b925050608086013567ffffffffffffffff811115612c2357612c22613b97565b5b612c2f888289016129f8565b9150509295509295909350565b600080600060608486031215612c5557612c54613b9c565b5b6000612c6386828701612948565b935050602084013567ffffffffffffffff811115612c8457612c83613b97565b5b612c908682870161298b565b925050604084013567ffffffffffffffff811115612cb157612cb0613b97565b5b612cbd8682870161298b565b9150509250925092565b60008060008060808587031215612ce157612ce0613b9c565b5b6000612cef87828801612948565b945050602085013567ffffffffffffffff811115612d1057612d0f613b97565b5b612d1c8782880161298b565b935050604085013567ffffffffffffffff811115612d3d57612d3c613b97565b5b612d498782880161298b565b925050606085013567ffffffffffffffff811115612d6a57612d69613b97565b5b612d76878288016129f8565b91505092959194509250565b60008060408385031215612d9957612d98613b9c565b5b6000612da785828601612948565b9250506020612db8858286016129b9565b9150509250929050565b60008060408385031215612dd957612dd8613b9c565b5b6000612de785828601612948565b9250506020612df885828601612a54565b9150509250929050565b600080600060608486031215612e1b57612e1a613b9c565b5b6000612e2986828701612948565b9350506020612e3a86828701612a54565b9250506040612e4b86828701612a54565b9150509250925092565b60008060008060808587031215612e6f57612e6e613b9c565b5b6000612e7d87828801612948565b9450506020612e8e87828801612a54565b9350506040612e9f87828801612a54565b925050606085013567ffffffffffffffff811115612ec057612ebf613b97565b5b612ecc878288016129f8565b91505092959194509250565b60008060408385031215612eef57612eee613b9c565b5b600083013567ffffffffffffffff811115612f0d57612f0c613b97565b5b612f198582860161295d565b925050602083013567ffffffffffffffff811115612f3a57612f39613b97565b5b612f468582860161298b565b9150509250929050565b600060208284031215612f6657612f65613b9c565b5b6000612f74848285016129ce565b91505092915050565b600060208284031215612f9357612f92613b9c565b5b6000612fa1848285016129e3565b91505092915050565b600060208284031215612fc057612fbf613b9c565b5b600082013567ffffffffffffffff811115612fde57612fdd613b97565b5b612fea84828501612a26565b91505092915050565b60006020828403121561300957613008613b9c565b5b600061301784828501612a54565b91505092915050565b600061302c8383613379565b60208301905092915050565b61304181613948565b82525050565b60006130528261385d565b61305c818561388b565b93506130678361384d565b8060005b8381101561309857815161307f8882613020565b975061308a8361387e565b92505060018101905061306b565b5085935050505092915050565b6130ae8161395a565b82525050565b60006130bf82613868565b6130c9818561389c565b93506130d98185602086016139cb565b6130e281613ba1565b840191505092915050565b60006130f882613873565b61310281856138ad565b93506131128185602086016139cb565b61311b81613ba1565b840191505092915050565b60006131336034836138ad565b915061313e82613bbf565b604082019050919050565b60006131566028836138ad565b915061316182613c0e565b604082019050919050565b6000613179602b836138ad565b915061318482613c5d565b604082019050919050565b600061319c6026836138ad565b91506131a782613cac565b604082019050919050565b60006131bf6024836138ad565b91506131ca82613cfb565b604082019050919050565b60006131e26029836138ad565b91506131ed82613d4a565b604082019050919050565b60006132056025836138ad565b915061321082613d99565b604082019050919050565b60006132286032836138ad565b915061323382613de8565b604082019050919050565b600061324b6023836138ad565b915061325682613e37565b604082019050919050565b600061326e602a836138ad565b915061327982613e86565b604082019050919050565b60006132916020836138ad565b915061329c82613ed5565b602082019050919050565b60006132b46020836138ad565b91506132bf82613efe565b602082019050919050565b60006132d7601a836138ad565b91506132e282613f27565b602082019050919050565b60006132fa6029836138ad565b915061330582613f50565b604082019050919050565b600061331d6029836138ad565b915061332882613f9f565b604082019050919050565b60006133406028836138ad565b915061334b82613fee565b604082019050919050565b60006133636021836138ad565b915061336e8261403d565b604082019050919050565b613382816139b2565b82525050565b613391816139b2565b82525050565b60006020820190506133ac6000830184613038565b92915050565b600060a0820190506133c76000830188613038565b6133d46020830187613038565b81810360408301526133e68186613047565b905081810360608301526133fa8185613047565b9050818103608083015261340e81846130b4565b90509695505050505050565b600060a08201905061342f6000830188613038565b61343c6020830187613038565b6134496040830186613388565b6134566060830185613388565b818103608083015261346881846130b4565b90509695505050505050565b6000602082019050818103600083015261348e8184613047565b905092915050565b600060408201905081810360008301526134b08185613047565b905081810360208301526134c48184613047565b90509392505050565b60006020820190506134e260008301846130a5565b92915050565b6000602082019050818103600083015261350281846130ed565b905092915050565b6000602082019050818103600083015261352381613126565b9050919050565b6000602082019050818103600083015261354381613149565b9050919050565b600060208201905081810360008301526135638161316c565b9050919050565b600060208201905081810360008301526135838161318f565b9050919050565b600060208201905081810360008301526135a3816131b2565b9050919050565b600060208201905081810360008301526135c3816131d5565b9050919050565b600060208201905081810360008301526135e3816131f8565b9050919050565b600060208201905081810360008301526136038161321b565b9050919050565b600060208201905081810360008301526136238161323e565b9050919050565b6000602082019050818103600083015261364381613261565b9050919050565b6000602082019050818103600083015261366381613284565b9050919050565b60006020820190508181036000830152613683816132a7565b9050919050565b600060208201905081810360008301526136a3816132ca565b9050919050565b600060208201905081810360008301526136c3816132ed565b9050919050565b600060208201905081810360008301526136e381613310565b9050919050565b6000602082019050818103600083015261370381613333565b9050919050565b6000602082019050818103600083015261372381613356565b9050919050565b600060208201905061373f6000830184613388565b92915050565b600060408201905061375a6000830185613388565b6137676020830184613388565b9392505050565b6000613778613789565b90506137848282613a30565b919050565b6000604051905090565b600067ffffffffffffffff8211156137ae576137ad613b37565b5b602082029050602081019050919050565b600067ffffffffffffffff8211156137da576137d9613b37565b5b602082029050602081019050919050565b600067ffffffffffffffff82111561380657613805613b37565b5b61380f82613ba1565b9050602081019050919050565b600067ffffffffffffffff82111561383757613836613b37565b5b61384082613ba1565b9050602081019050919050565b6000819050602082019050919050565b600081519050919050565b600081519050919050565b600081519050919050565b6000602082019050919050565b600082825260208201905092915050565b600082825260208201905092915050565b600082825260208201905092915050565b60006138c9826139b2565b91506138d4836139b2565b9250827fffffffffffffffffffffffffffffffffffffffffffffffffffffffffffffffff0382111561390957613908613aaa565b5b828201905092915050565b600061391f826139b2565b915061392a836139b2565b92508282101561393d5761393c613aaa565b5b828203905092915050565b600061395382613992565b9050919050565b60008115159050919050565b60007fffffffff0000000000000000000000000000000000000000000000000000000082169050919050565b600073ffffffffffffffffffffffffffffffffffffffff82169050919050565b6000819050919050565b82818337600083830152505050565b60005b838110156139e95780820151818401526020810190506139ce565b838111156139f8576000848401525b50505050565b60006002820490506001821680613a1657607f821691505b60208210811415613a2a57613a29613ad9565b5b50919050565b613a3982613ba1565b810181811067ffffffffffffffff82111715613a5857613a57613b37565b5b80604052505050565b6000613a6c826139b2565b91507fffffffffffffffffffffffffffffffffffffffffffffffffffffffffffffffff821415613a9f57613a9e613aaa565b5b600182019050919050565b7f4e487b7100000000000000000000000000000000000000000000000000000000600052601160045260246000fd5b7f4e487b7100000000000000000000000000000000000000000000000000000000600052602260045260246000fd5b7f4e487b7100000000000000000000000000000000000000000000000000000000600052603260045260246000fd5b7f4e487b7100000000000000000000000000000000000000000000000000000000600052604160045260246000fd5b600060033d1115613b855760046000803e613b82600051613bb2565b90505b90565b600080fd5b600080fd5b600080fd5b600080fd5b600080fd5b6000601f19601f8301169050919050565b60008160e01c9050919050565b7f455243313135353a207472616e7366657220746f206e6f6e204552433131353560008201527f526563656976657220696d706c656d656e746572000000000000000000000000602082015250565b7f455243313135353a204552433131353552656365697665722072656a6563746560008201527f6420746f6b656e73000000000000000000000000000000000000000000000000602082015250565b7f455243313135353a2062616c616e636520717565727920666f7220746865207a60008201527f65726f2061646472657373000000000000000000000000000000000000000000602082015250565b7f4f776e61626c653a206e6577206f776e657220697320746865207a65726f206160008201527f6464726573730000000000000000000000000000000000000000000000000000602082015250565b7f455243313135353a206275726e20616d6f756e7420657863656564732062616c60008201527f616e636500000000000000000000000000000000000000000000000000000000602082015250565b7f455243313135353a2063616c6c6572206973206e6f74206f776e6572206e6f7260008201527f20617070726f7665640000000000000000000000000000000000000000000000602082015250565b7f455243313135353a207472616e7366657220746f20746865207a65726f20616460008201527f6472657373000000000000000000000000000000000000000000000000000000602082015250565b7f455243313135353a207472616e736665722063616c6c6572206973206e6f742060008201527f6f776e6572206e6f7220617070726f7665640000000000000000000000000000602082015250565b7f455243313135353a206275726e2066726f6d20746865207a65726f206164647260008201527f6573730000000000000000000000000000000000000000000000000000000000602082015250565b7f455243313135353a20696e73756666696369656e742062616c616e636520666f60008201527f72207472616e7366657200000000000000000000000000000000000000000000602082015250565b7f4f776e61626c653a2063616c6c6572206973206e6f7420746865206f776e6572600082015250565b7f4e65772070726f73756d657220697320746865207a65726f2061646472657373600082015250565b7f43616c6c6572206973206e6f74207468652070726f73756d6572000000000000600082015250565b7f455243313135353a2073657474696e6720617070726f76616c2073746174757360008201527f20666f722073656c660000000000000000000000000000000000000000000000602082015250565b7f455243313135353a206163636f756e747320616e6420696473206c656e67746860008201527f206d69736d617463680000000000000000000000000000000000000000000000602082015250565b7f455243313135353a2069647320616e6420616d6f756e7473206c656e6774682060008201527f6d69736d61746368000000000000000000000000000000000000000000000000602082015250565b7f455243313135353a206d696e7420746f20746865207a65726f2061646472657360008201527f7300000000000000000000000000000000000000000000000000000000000000602082015250565b600060443d101561409c5761411f565b6140a4613789565b60043d036004823e80513d602482011167ffffffffffffffff821117156140cc57505061411f565b808201805167ffffffffffffffff8111156140ea575050505061411f565b80602083010160043d03850181111561410757505050505061411f565b61411682602001850186613a30565b82955050505050505b90565b61412b81613948565b811461413657600080fd5b50565b6141428161395a565b811461414d57600080fd5b50565b61415981613966565b811461416457600080fd5b50565b614170816139b2565b811461417b57600080fd5b5056fea2646970667358221220ee97d5e1583bc1a12cde2fef1eaf2b030e8241ca41516e388e7928f5fbb2fb0264736f6c6343000806003368747470733a2f2f746b786b64303135392e6769746875622e696f2f656e6572677974782d6574682f657263313135356d6574612f746f6b656e2f7b69647d2e6a736f6e",
  "immutableReferences": {},
  "source": "// SPDX-License-Identifier: MIT\r\npragma solidity ^0.8.0;\r\n\r\nimport \"@openzeppelin/contracts/access/Ownable.sol\";\r\nimport \"@openzeppelin/contracts/token/ERC1155/extensions/ERC1155Burnable.sol\";\r\n\r\ncontract EnergyAsset is Ownable, ERC1155Burnable {\r\n    uint256 public constant E_TOKEN = 0;\r\n    uint256 private _totalTokenSupply;\r\n    uint256 public constant E_CERTIFICATION = 1;\r\n    uint256 private _creation_time = block.timestamp;\r\n    uint256 private _maxid = 0;\r\n\r\n    event AddProsumer(address indexed newProsumer);\r\n\r\n    mapping(address => bool) prosumers;\r\n\r\n    modifier isProsumer {\r\n        require(prosumers[_msgSender()] == true || _msgSender() == owner(), \"Caller is not the prosumer\");\r\n        _;\r\n    }\r\n    modifier onlyAfter(uint start, uint minutes_after) {\r\n        require(block.timestamp > start + minutes_after * 1 minutes, \"It's called too early\");\r\n        _;\r\n    }\r\n\r\n    function addProsumer(address new_prosumer) public onlyOwner {\r\n        require(new_prosumer != address(0), \"New prosumer is the zero address\");\r\n        prosumers[new_prosumer] = true;\r\n\r\n        emit AddProsumer(new_prosumer);\r\n    }\r\n\r\n    function setCreationTime() public isProsumer {\r\n        _creation_time = block.timestamp;\r\n    }\r\n\r\n    function getCreationTime() public view returns (uint256) {\r\n        return _creation_time;\r\n    }\r\n\r\n    function getEtokenBalance() public view returns (uint256) {\r\n        return _totalTokenSupply;\r\n    }\r\n\r\n    constructor() ERC1155(\"https://tkxkd0159.github.io/energytx-eth/erc1155meta/token/{id}.json\") {\r\n        _mint(_msgSender(), E_TOKEN, 10**18, \"\");\r\n        _totalTokenSupply += 10**18;\r\n        _mint(_msgSender(), E_CERTIFICATION, 1, \"\");\r\n    }\r\n\r\n    function setURI(string memory new_uri) public onlyOwner {\r\n        _setURI(new_uri);\r\n    }\r\n\r\n    function mint(address account, uint256 id, uint256 amount, bytes memory data)\r\n        public\r\n        onlyOwner\r\n    {\r\n\r\n        _mint(account, id, amount, data);\r\n        if (id == E_TOKEN) {\r\n            _totalTokenSupply += amount;\r\n        }\r\n        if (id > _maxid) {\r\n            _maxid = id;\r\n        }\r\n\r\n    }\r\n\r\n    function mintBatch(address to, uint256[] memory ids, uint256[] memory amounts, bytes memory data)\r\n        public\r\n        onlyOwner\r\n    {\r\n        _mintBatch(to, ids, amounts, data);\r\n        for (uint i=0; i < ids.length; i++) {\r\n            if (ids[i] == E_TOKEN) {\r\n                _totalTokenSupply += amounts[i];\r\n            }\r\n\r\n            if (ids[i] > _maxid) {\r\n                _maxid = ids[i];\r\n            }\r\n        }\r\n    }\r\n\r\n    function burnBatch(\r\n        address account,\r\n        uint256[] memory ids,\r\n        uint256[] memory amounts\r\n    ) public override {\r\n        super.burnBatch(account, ids, amounts);\r\n        for (uint i=0; i < ids.length; i++) {\r\n            if (ids[i] == E_TOKEN) {\r\n                _totalTokenSupply -= amounts[i];\r\n            }\r\n        }\r\n    }\r\n\r\n    function getMaxId() public view returns (uint256) {\r\n        return _maxid;\r\n    }\r\n}\r\n",
  "sourcePath": "D:\\Code\\energytx-eth\\energy\\contracts\\energy_asset.sol",
  "compiler": {
    "name": "solc",
    "version": "0.8.6+commit.11564f7e.Emscripten.clang"
  },
  "schemaVersion": "3.3.2",
  "updatedAt": "2021-07-12T00:23:02.800Z",
  "networkType": "ethereum",
  "devdoc": {
    "kind": "dev",
    "methods": {
      "balanceOf(address,uint256)": {
        "details": "See {IERC1155-balanceOf}. Requirements: - `account` cannot be the zero address."
      },
      "balanceOfBatch(address[],uint256[])": {
        "details": "See {IERC1155-balanceOfBatch}. Requirements: - `accounts` and `ids` must have the same length."
      },
      "isApprovedForAll(address,address)": {
        "details": "See {IERC1155-isApprovedForAll}."
      },
      "owner()": {
        "details": "Returns the address of the current owner."
      },
      "renounceOwnership()": {
        "details": "Leaves the contract without owner. It will not be possible to call `onlyOwner` functions anymore. Can only be called by the current owner. NOTE: Renouncing ownership will leave the contract without an owner, thereby removing any functionality that is only available to the owner."
      },
      "safeBatchTransferFrom(address,address,uint256[],uint256[],bytes)": {
        "details": "See {IERC1155-safeBatchTransferFrom}."
      },
      "safeTransferFrom(address,address,uint256,uint256,bytes)": {
        "details": "See {IERC1155-safeTransferFrom}."
      },
      "setApprovalForAll(address,bool)": {
        "details": "See {IERC1155-setApprovalForAll}."
      },
      "supportsInterface(bytes4)": {
        "details": "See {IERC165-supportsInterface}."
      },
      "transferOwnership(address)": {
        "details": "Transfers ownership of the contract to a new account (`newOwner`). Can only be called by the current owner."
      },
      "uri(uint256)": {
        "details": "See {IERC1155MetadataURI-uri}. This implementation returns the same URI for *all* token types. It relies on the token type ID substitution mechanism https://eips.ethereum.org/EIPS/eip-1155#metadata[defined in the EIP]. Clients calling this function must replace the `\\{id\\}` substring with the actual token type ID."
      }
    },
    "version": 1
  },
  "userdoc": {
    "kind": "user",
    "methods": {},
    "version": 1
  }
}