{
  "contractName": "SimpleStorage",
  "abi": [
    {
      "inputs": [],
      "name": "owner",
      "outputs": [
        {
          "internalType": "address",
          "name": "",
          "type": "address"
        }
      ],
      "stateMutability": "view",
      "type": "function"
    },
    {
      "inputs": [
        {
          "internalType": "uint256",
          "name": "x",
          "type": "uint256"
        }
      ],
      "name": "set",
      "outputs": [],
      "stateMutability": "nonpayable",
      "type": "function"
    },
    {
      "inputs": [],
      "name": "get",
      "outputs": [
        {
          "internalType": "uint256",
          "name": "",
          "type": "uint256"
        }
      ],
      "stateMutability": "view",
      "type": "function"
    }
  ],
  "bytecode": "0x608060405233600160006101000a81548173ffffffffffffffffffffffffffffffffffffffff021916908373ffffffffffffffffffffffffffffffffffffffff16021790555034801561005157600080fd5b5061032e806100616000396000f3fe608060405234801561001057600080fd5b50600436106100415760003560e01c806360fe47b1146100465780636d4ce63c146100625780638da5cb5b14610080575b600080fd5b610060600480360381019061005b919061017c565b61009e565b005b61006a610138565b6040516100779190610225565b60405180910390f35b610088610141565b60405161009591906101ea565b60405180910390f35b600160009054906101000a900473ffffffffffffffffffffffffffffffffffffffff1673ffffffffffffffffffffffffffffffffffffffff163373ffffffffffffffffffffffffffffffffffffffff161461012e576040517f08c379a000000000000000000000000000000000000000000000000000000000815260040161012590610205565b60405180910390fd5b8060008190555050565b60008054905090565b600160009054906101000a900473ffffffffffffffffffffffffffffffffffffffff1681565b600081359050610176816102e1565b92915050565b6000602082840312156101925761019161028d565b5b60006101a084828501610167565b91505092915050565b6101b281610251565b82525050565b60006101c5603383610240565b91506101d082610292565b604082019050919050565b6101e481610283565b82525050565b60006020820190506101ff60008301846101a9565b92915050565b6000602082019050818103600083015261021e816101b8565b9050919050565b600060208201905061023a60008301846101db565b92915050565b600082825260208201905092915050565b600061025c82610263565b9050919050565b600073ffffffffffffffffffffffffffffffffffffffff82169050919050565b6000819050919050565b600080fd5b7f546869732066756e6374696f6e206973207265737472696374656420746f207460008201527f686520636f6e74726163742773206f776e657200000000000000000000000000602082015250565b6102ea81610283565b81146102f557600080fd5b5056fea2646970667358221220d56747ce2c9fb485121c253da9b111cb0e066c3450b41aed3a0930f359582e4e64736f6c63430008060033",
  "immutableReferences": {},
  "source": "// SPDX-License-Identifier: GPL-3.0\r\npragma solidity >=0.7.0 <0.9.0;\r\n\r\ncontract SimpleStorage {\r\n    uint storedData;\r\n    address public owner = msg.sender;\r\n\r\n    modifier restricted() {\r\n      require(\r\n        msg.sender == owner,\r\n        \"This function is restricted to the contract's owner\"\r\n      );\r\n      _;\r\n    }\r\n\r\n    function set(uint x) public restricted{\r\n        storedData = x;\r\n    }\r\n\r\n    function get() public view returns (uint) {\r\n        return storedData;\r\n    }\r\n}",
  "sourcePath": "C:/Users/admin/Documents/SourceCode/GitHub/energytx-eth/energy/contracts/simple.sol",
  "compiler": {
    "name": "solc",
    "version": "0.8.6+commit.11564f7e.Emscripten.clang"
  },
  "schemaVersion": "3.4.1",
  "updatedAt": "2021-07-08T12:22:36.869Z",
  "devdoc": {
    "kind": "dev",
    "methods": {},
    "version": 1
  },
  "userdoc": {
    "kind": "user",
    "methods": {},
    "version": 1
  }
}