{
  "contractName": "SimpleStorage",
  "abi": [
    {
      "inputs": [],
      "name": "owner",
      "outputs": [
        {
          "internalType": "address",
          "name": "",
          "type": "address"
        }
      ],
      "stateMutability": "view",
      "type": "function",
      "constant": true
    },
    {
      "inputs": [
        {
          "internalType": "uint256",
          "name": "x",
          "type": "uint256"
        }
      ],
      "name": "set",
      "outputs": [],
      "stateMutability": "nonpayable",
      "type": "function"
    },
    {
      "inputs": [],
      "name": "get",
      "outputs": [
        {
          "internalType": "uint256",
          "name": "",
          "type": "uint256"
        }
      ],
      "stateMutability": "view",
      "type": "function",
      "constant": true
    }
  ],
  "bytecode": "0x608060405233600160006101000a81548173ffffffffffffffffffffffffffffffffffffffff021916908373ffffffffffffffffffffffffffffffffffffffff16021790555034801561005157600080fd5b506101fb806100616000396000f3fe608060405234801561001057600080fd5b50600436106100415760003560e01c806360fe47b1146100465780636d4ce63c146100625780638da5cb5b14610080575b600080fd5b610060600480360381019061005b91906100ec565b61009e565b005b61006a6100a8565b6040516100779190610152565b60405180910390f35b6100886100b1565b6040516100959190610137565b60405180910390f35b8060008190555050565b60008054905090565b600160009054906101000a900473ffffffffffffffffffffffffffffffffffffffff1681565b6000813590506100e6816101ae565b92915050565b600060208284031215610102576101016101a9565b5b6000610110848285016100d7565b91505092915050565b6101228161016d565b82525050565b6101318161019f565b82525050565b600060208201905061014c6000830184610119565b92915050565b60006020820190506101676000830184610128565b92915050565b60006101788261017f565b9050919050565b600073ffffffffffffffffffffffffffffffffffffffff82169050919050565b6000819050919050565b600080fd5b6101b78161019f565b81146101c257600080fd5b5056fea2646970667358221220163c7991c4403075e7cff96c187b62180202b06d4576989ca1cee3118d1e6e0d64736f6c63430008060033",
  "immutableReferences": {},
  "source": "// SPDX-License-Identifier: GPL-3.0\npragma solidity >=0.4.16 <0.9.0;\n\ncontract SimpleStorage {\n    uint storedData;\n    address public owner = msg.sender;\n\n    modifier restricted() {\n      require(\n        msg.sender == owner,\n        \"This function is restricted to the contract's owner\"\n      );\n      _;\n    }\n\n    function set(uint x) public {\n        storedData = x;\n    }\n\n    function get() public view returns (uint) {\n        return storedData;\n    }\n}",
  "sourcePath": "/home/ljsku/github/energytx-eth/energy/contracts/simple.sol",
  "compiler": {
    "name": "solc",
    "version": "0.8.6+commit.11564f7e.Emscripten.clang"
  },
  "schemaVersion": "3.4.1",
  "updatedAt": "2021-07-08T08:03:47.780Z",
  "networkType": "ethereum",
  "devdoc": {
    "kind": "dev",
    "methods": {},
    "version": 1
  },
  "userdoc": {
    "kind": "user",
    "methods": {},
    "version": 1
  }
}